:020000040800F2
:10000000000002202DC20108193D0108ADB201080F
:10001000A5C20108A5C20108A5C201080000000090
:10002000000000000000000000000000F542010890
:10003000F342010800000000F14201085BF90008EA
:10004000A5C20108A5C20108A5C20108A5C20108F0
:10005000A5C20108A5C201080BA6010813A6010844
:10006000A5C2010811A601080FA60108193500084C
:1000700009350008F9340008E9340008D9340008CB
:10008000C5340008B1340008A5C20108A5C20108A2
:10009000A5C20108A5C20108A5C201080DA6010854
:1000A00081F60008A5C20108A5C20108A5C2010881
:1000B000C5F60008B5F60008A5C2010831380008E9
:1000C00037380008273800082D380008A5C2010875
:1000D000A5C2010839310008A5C201082D31000868
:1000E00009A60108A5C20108F143010871F600083C
:1000F000A1F60008A5C2010891F600089D34000889
:10010000A5C20108A5C20108A5F60008A5C20108FC
:10011000A5C20108A5C20108A5C20108A5C201081F
:100120008934000875340008613400084D34000833
:1001300039340008A5C20108A5C20108A5C20108FA
:10014000A5C20108A5C20108A5C201081B3D0108FE
:100150002534000811340008FD330008213100085F
:100160001D38000823380008A5C20108A5C20108EF
:10017000A5C20108A5C20108A5C20108A5C20108BF
:08018000A5C20108A5C2010897
:100188002DE9F04F1646B0F908200A81D3B25A2B50
:100198008BB005460C4600F0758700F2DC80362BE4
:1001A80000F05D865CD8242B00F0888526D8042BC7
:1001B80000F0F28116D8022B00F0B68100F2DE8141
:1001C800012B40F0EC860A68511C21600021117057
:1001D8002268511C2160137023685A1C2260162261
:1001E80000F0CFBF0A2B00F05482222B00F0F983D5
:1001F800052B40F0D4860023D14DDAE12C2B00F0FA
:10020800778517D8282B00F05C852A2B00F06D85A0
:10021800262B40F0C486CB4D2046B5F8E4110DF0EE
:1002280086FEB5F8E81120460DF081FEB5F8EC1110
:1002380000F090BF302B00F03B8607D82E2B40F003
:10024800AE86C04D05F1400600F01CBE322B00F012
:10025800CE85342B40F0A386BA4B03F15A01E6E36E
:10026800452B00F0C78630D83D2B00F048831FD8B7
:100278003A2B00F0CD863B2B00F0AE83382B40F0B4
:100288008E862268AF4B501C93F82E122060117096
:10029800226893F83212501C20601170226893F87B
:1002A8003112501C2060117093F8332200F066BFA1
:1002B800422B00F0AD85442B00F06687402B40F0C0
:1002C8006E8600239F4D00F096BD4D2B00F02781D0
:1002D8001ED8492B00F01E834B2B00F04E85462B71
:1002E80040F05D8602F066FE2368974D5A1C40F088
:1002F800020022601870298820460DF004FEE96883
:1003080020460DF000FE08F00FF9014600F081BE0E
:10031800502B00F02F8616D84F2B40F040860B68E4
:1003280000255A1C0A601D700B685A1C0A601D7053
:100338000B685A1C0A60204629461D700DF0E3FD23
:10034800294600F066BE522B00F04F86542B00F071
:100358004C8600F024BE722B00F0C88300F28C801B
:10036800682B00F047826CD8642B00F0408137D8A6
:100378005E2B00F0AF86602B00F0F1865C2B40F01E
:100388000E86704E0B6896F8F821704D591C216046
:100398001A702B682046198C0DF0C9FD2B68204671
:1003A800598C0DF0C4FDB6F8FA1120460DF0BFFDCA
:1003B800B6F8FC1120460DF0BAFD2B682046998C42
:1003C8000DF0B5FD2B682046D98C0DF0B0FDB6F8C0
:1003D800FE1120460DF0ABFDB6F8001200F0BABED3
:1003E800662B00F0678100F28F81594B20461988EF
:1003F8000DF09DFD574B1988204689B20DF097FDE9
:10040800554B1B68C3F3C001C3F38002890041EA5E
:100418004201C3F340021143C3F3401241EAC2014F
:1004280003F01003194320460DF081FD1AF0E5FF93
:10043800014620460DF067FD424B93F8502500F029
:100448009DBE6C2B00F0F78108D86A2B00F0C283A0
:1004580000F2E3830025414E414FE1E16E2B00F0AD
:100468002982C0F0F7816F2B00F05882702B40F082
:100478009685002335498BE27E2B00F0F3851AD848
:10048800772B44D009D8742B00F0FA82C0F09883F7
:10049800752B40F08485334A94E27C2B00F0BE85AE
:1004A80000F2CA85782B40F07A85264D00262F4623
:1004B8004FF00E0837E1A42B00F0C0830DD8962B1F
:1004C80000F0A880A02B00F0EC837F2B40F067851C
:1004D800002306251B4F00F00FBDF12B00F05881BB
:1004E8000CD8F02B40F05B85164D2046B5F810125D
:1004F8000DF01DFDB5F80E1200F02CBEF52B00F026
:100508004886FE2B40F04B850025174EBFE3174861
:10051800174E002200F10C074FF00C0EDEE2154DCD
:100528000E4F002600F049BC134D00232268595D88
:100538000133501C042B20601170F7D101F075BDF8
:10054800D5380208A8720020B8190020BC4A00203B
:1005580092500020A4720020706900209C50002056
:10056800608700206F0C0208FE370020E821002079
:10057800700C020832750020CB3802080B685A1C30
:100588000A6003221A700B685A1C0A6001221A704A
:100598000B689A1800F02BBDB24D00232268595DF4
:1005A8000133501C042B20601170F7D1002100F09A
:1005B800D1BD2268595D0133501C0B2B206011708E
:1005C800F7D1A94D00232268595D0133501C082B2F
:1005D80020601170F7D1A54D00232268595D0133C1
:1005E800501C072B20601170F7D101F01EBD0B685D
:1005F8005A1C0A60E7221A709D4B5A790B68591CDD
:1006080021601A7023685A1C226000221A70042183
:1006180000F0FFBC974B204619880DF088FC964BDC
:100628001988204689B20DF082FC944B1B68C3F3ED
:10063800C001C3F38002890041EA4201C3F34002CA
:100648001143C3F3401241EAC20103F010031943F6
:1006580020460DF06CFC1AF0D0FE014620460DF045
:1006680052FC834B93F850252368591C21601A705B
:10067800834B19886429A8BF642120460DF057FCD4
:1006880023685A1C226003221A707E4B1A7800F0E5
:1006980075BD7D481AF044FF75490023984241F31F
:1006A800C4845A18013392F808562268561C2660EA
:1006B8001570F3E7754B764F1B89B3F5007F94BF30
:1006C80001260426002557F8251091FBF6F120464F
:1006D80089B201350DF02BFC032DF4D16D4E0025A8
:1006E80036F82510204601350DF021FC032DF7D1F1
:1006F800694E002536F82510204601350DF017FC07
:10070800032DF7D101F091BC644B0A6803F1100185
:1007180053F8040B42F8040B8B42F9D123681033C9
:10072800236001F082BCB5F8701120460DF0FFFB84
:10073800B5F8721120460DF0FAFBB5F87411204691
:100748000DF0F5FB236895F87621591C21601A7085
:10075800236895F87721591C21601A70236895F849
:100768007821591C21601A70236895F87921591C41
:1007780021601A7008FB06732046D3F87A110136F7
:100788000DF0C1FB082E05F10E05CCD101F04DBCD2
:10079800374B03F17001226893F80001551C25605E
:1007A8001070226893F80101551C256010702268AA
:1007B80093F80201551C25601070226893F8030114
:1007C800551C25601070226893F80401551C25609B
:1007D8001070226893F80501551C25601070226876
:1007E80093F806010733551C8B4225601070D2D14F
:1007F80001F01BBC2A4FDFF8B8800025182606FB3D
:100808000573197C21B138F8150018F0A7FA0146CC
:10081800204601350DF08BFB082DF0D101F005BC09
:1008280033789D4281F2018437F8151020460DF087
:100838007EFB0135F4E71B4D204629880DF077FB38
:10084800698820460DF073FBB5F904300A2193FB43
:10085800F1F151E0144B204619680DF054FB134B8D
:10086800D9E100BFD0380208E1380208EA380208A6
:10087800A872002092500020A47200207069002005
:10088800C44A00202C4E0020B07800201C690020AB
:10089800E88B0020108C0020F48B00209A41002067
:1008A800E44C0020028C002038380020E821002089
:1008B80052720020BA4B0A681B88BA4DFF2BA8BF9A
:1008C800FF23511C21601370B74B196881F3100185
:1008D80089B220460DF02BFBA98820460DF027FB96
:1008E800B24BA96893F83B3223B10A23594381F3E9
:1008F800100101E001F30F0189B200F02BBC22685E
:10090800AA4B501C93F8C3122060117093F8C222AE
:1009180000F034BCA64B998A00F01CBCA54B1A68A1
:1009280011782268501C206011701A68917822682A
:10093800501C20601170002219689E4D114401322C
:1009480048792168032A01F1010626600870F3D16D
:100958002B681A7A2368591C21601A702B68DA7878
:100968002368591C21601A702B681A792368591C4E
:1009780021601A702B68204659890DF0D8FA2B6827
:100988005A7A2368591C21601A702B685A78F5E343
:100998000A68D05C2268551C256010700A681A44E1
:1009A800907A2268551C256010700A681A44013331
:1009B800107D22680A2B02F1010525601070E7D12D
:1009C80001F033BB12F8013F002B01F02E832168A0
:1009D800481C20600B70F5E70B685A1C0A6001225E
:1009E800CFE3724B744E03F150010C2793F8512555
:1009F80007FB0262043392F838002268551C256010
:100A08001070226893F84E05551C256010702268F6
:100A180093F84F05551C25601070226893F850050F
:100A2800551C994225601070E0D101F0FEBA226889
:100A380093F8A605551C25601070226893F8A10547
:100A4800551C25601070226893F8A205551C256076
:100A58001070226893F8A305551C25601070226851
:100A680093F8A405551C25601070226893F8A50515
:100A78000633551C8B4225601070D8D101F0D5BAC9
:100A8800484FDFF834A1012607F10C084FF00C0994
:100A9800002597F82A309D420EDA15F80810002232
:100AA80009FB02F34548185C884200F0FA830132DA
:100AB8001F2AF5D10135ECE7002E01F0B682002699
:100AC800E6E70EFB01F3DFF8F4C013F80CC0AC4501
:100AD80000F0FF8301311F29F3D1013290F82A3049
:100AE8009A4281F2A282D55D0021EAE72F4D204685
:100AF800B5F87A120DF01BFAB5F8CC1020460DF0B7
:100B080016FAB5F8CE1020460DF011FAB5F8D01047
:100B180020460DF00CFAB5F8CA1220460DF007FA77
:100B2800236895F85022591C21601A7023685A1CB2
:100B3800226000221A70236895F85112581C206010
:100B48001970236895F83B12581C206019702368A7
:100B580095F87712581C206019702368591C216079
:100B68001A70B5F90C320A21204693FBF1F189B2CB
:100B78000DF0DDF9236895F82E22591C21601A70B2
:100B8800236895F83222591C21601A70236895F859
:100B98003122591C21601A7095F83322EEE200BF09
:100BA800DA4B0020E8210020D44B0020A872002056
:100BB8002869002014380020700C0208A00C0208D4
:100BC80001232268511C216013700133092BF8D1CD
:100BD80001F02BBABC4B0A681B78BC4D511C03F0C2
:100BE800020321601370BA4B1A782368591C2160DC
:100BF8001A70E96A20460DF086F9296B20460DF037
:100C080082F9A98E20460DF092F9B24B2046198838
:100C18000DF08DF9B04B19889CE2AC4D2046E98E59
:100C28000DF085F9298F20460DF081F9226895F895
:100C38003A30511C03F0010321602FE32368A34AD3
:100C4800581C92F83B10206002F13C0519700023F3
:100C580092F83B108B4281F2E8812168585D4E1C66
:100C68002660087020689D49471C5E5C27600670F6
:100C780001F1100020311E5C2068471C27600670B7
:100C8800585C21684E1C266001330870E0E736F88E
:100C98001510204601350DF04AF9042DF7D101F061
:100CA800C4B98F4B204619680DF02DF98D4B20469D
:100CB80019680DF028F98C4B1968AAE18B4B9968D3
:100CC800A7E18A4D2046B5F836120DF030F9B5F88F
:100CD800381220460DF02BF9236895F83A22591C52
:100CE80021601A70B5F83C1234E2804B5A7945E21B
:100CF8007E4D0B6895F86C22591C21601A70B5F866
:100D08007E1220460DF013F9B5F87A1220460DF040
:100D18000EF9B5F87C1220460DF009F9236895F80C
:100D28007522591C21601A70B5F8861220460DF0FC
:100D3800FEF8B5F8881220460DF0F9F8236895F802
:100D48008022591C21601A70236895F88122591C49
:100D580021601A70B5F8841220460DF0E8F823686F
:100D680095F86E22591C21601A70D5F87012204629
:100D78000DF0C9F895F8742200E20B685B4D591C18
:100D880095F8C82221601A70236895F8C922591C61
:100D980021601A70B5F8CA1220460DF0C8F8236809
:100DA80095F8CC22591C21601A70B5F8CE1220464D
:100DB8000DF0BDF895F8D022E0E13B789E4205F1B0
:100DC800020581F23281236815F8022C591C216032
:100DD8001A7015F8011C01EB810101EB810101F288
:100DE800EE2189B220460DF0A2F80136E5E73F4B27
:100DF80093F87722C2E15A19013392F864122268F3
:100E0800082B02F1010020601170F4D101F00DB936
:100E1800364D0B686A79591C21601A70A9682046FA
:100E28000DF071F8236895F86C22591C21601A702E
:100E3800B5F8E41120460DF07AF8B5F8E811204627
:100E48000DF075F8B5F8EC1120460DF070F8B5F80E
:100E5800361220460DF06BF8B5F838127AE1234DBA
:100E6800234F05F1200695F9D4220023D957914242
:100E780000F038820C33302BF8D10835B542F2D166
:100E880001F0D3B8B5F8981320460DF050F8236850
:100E980095F89A23591C21601A70236895F89B23AA
:100EA8000435591CAE4221601A70EBD101F0BDB86F
:100EB800104D05F1800655F8041F20460DF023F863
:100EC800AE42F8D101F0B1B8C4710020E821002089
:100ED800C5710020008C0020088C002034220020DE
:100EE800107AFF1F147AFF1F187AFF1FA8720020BC
:100EF800C07E0020BC75002005FB03F0002221689D
:100F08004E1C26600B7021684E1C26600A70111852
:100F18003944013291F8D8632168062A01F1010E9B
:100F2800C4F800E00E70BA4EE9D10133062BE3D1C4
:100F380000222168481C20600B702168481C206032
:100F48000A70B118013291F8FC0321680B2A01F1EB
:100F5800010525600870ECD123685A1C226007221D
:100F68001A7023685A1C226000221A70A84B93F842
:100F7800082403E10B685A1C0A6001221A702268CF
:100F8800A34B501C93F8FD1520601170226893F84C
:100F9800FB15501C2060117093F8FC25EEE0762BB1
:100FA8002A6840F05381531C2B601378002B40F0C3
:100FB800BB81984AD16FD2F880502268501C2060BB
:100FC800137020460CF09FFF294620460CF09BFF2B
:100FD800914B204619680CF096FF002120460CF032
:100FE800A6FF002120460CF0A2FF23685A1C2260AD
:100FF8000022C6E0894D00232268595D0133501C48
:101008000B2B20601170F7D1002120460CF07BFFDC
:10101800002120460CF077FF01F007B87C4D2046F0
:10102800B5F8E6100CF083FFB5F8E81020460CF090
:101038007EFFB5F8EA108DE02268754B501C93F8D6
:10104800401220601170226893F84112501C2060F1
:101058001170226893F84212501C20601170B3F886
:10106800EC1077E022686A4B501C93F8E11120607D
:101078001170226893F8E211501C2060117093F8E7
:10108800E3217BE0624B2268B3F8F41141B1511CB3
:101098002160082111702268511C2160012109E09A
:1010A80093F8F611501C20601170226893F806120C
:1010B800501C20601170226893F8D710501C2060D3
:1010C8001170226893F8D610501C20601170B3F884
:1010D800D4103FE0524D2B682046198D0CF027FFA5
:1010E8002B682046598D0CF022FF2B682046998DDD
:1010F8000CF01DFF23685A1C226000221A702B680E
:1011080093F835102368581C206019702B6893F8E1
:1011180038102368581C206019702B6893F8391010
:101128002368581C206019702368591C21601A70A4
:101138002368591C21601A702B6893F8372023689C
:10114800591C21601A702B682046998F0CF0EFFE0D
:101158002B68598F20460CF0EAFE00F066BF226823
:101168002B4B501C93F8F11120601170226893F8F2
:101178000A12501C2060117093F809222368591C28
:1011880021601A7000F051BF002E00F04E87254BE9
:1011980059E00027244DDFF8988019F0EFF8394618
:1011A800302222482F701FF0AFFC8DF804701F4FBB
:1011B8009DF804300B2B3DD89DF8043003EB430316
:1011C80008EBC3031B7CE3B19DF8043003EB430336
:1011D80008EBC3035B69A3B19DF8043003EB430339
:1011E80008EBC303202158692B7847F8230019F02E
:1011F800E1F92B7857F8230019F06DF92B780133B2
:101208002B709DF804300133DBB28DF80430CFE742
:10121800A8720020E821002034380020D5380208C0
:10122800BC4A0020F5B30108E35200209852002080
:10123800E44C002023682A78591C21601A70002E7B
:1012480000F0F386CD4B336000F0EFBE6E68472B9D
:10125800A6EB020673D05D2B00F0BD8340F2B88088
:10126800D22B00F0488100F21F81CC2B00F01F82A6
:1012780040F20281CF2B00F0668200F20E81CD2B66
:1012880000F03484CE2B40F07481BD4B1B78580796
:1012980000F1CB86BB4A137843F00403137000F0C7
:1012A800C4BE5344D3F834B058461AF039F9002E66
:1012B8007FF400AC5B46CBEB03028242BFF6FAAB8D
:1012C800226813F8011B02F1010EC4F800E0117046
:1012D800F1E7334493F8381023685D1C25601970D2
:1012E800FFF7FBBB2368591C21601A70B5F8D612AA
:1012F80020460CF01CFE236895F8D822591C216062
:101308001A70236895F8D922591C21601A7023682D
:1013180095F8DB22591C21601A70236895F8DA22A7
:10132800591C21601A70A8E5102B09BF964A0025A0
:10133800D2F88410D2F8885018BF29463DE62846CE
:101348000CF0C0FD052E074605D928460CF0D0FD47
:101358000026054601E00126802594E80C009B1A2A
:10136800103B8A4AAB42A846B8BF9DB2D368DB1B84
:101378009D423946204688BF9DB291460CF0C3FD78
:101388003EB9294620460CF0D2FD23685A1C22603B
:101398001E70D9F80C30D4F800A07A199A4288BF88
:1013A800DD1B07F079F92A465146384601F03CFE24
:1013B800236803442360002E00F03786002280450E
:1013C80040F333862368591C216001301A70F6E710
:1013D800372B00F0728527D82B2B00F07D8411D88D
:1013E800252B00F02E8406D80B2B00F0E385232B49
:1013F80000F0A880BDE0272B00F02D84292B00F0F9
:101408005484B6E0312B00F0B28506D82D2B00F0BD
:1014180069842F2B00F09385ABE0332B00F0FD841B
:10142800352B00F01481A4E0482B00F08C8311D8F0
:101438003E2B00F0E18006D8392B00F01D843C2BB0
:1014480000F0F38595E0412B00F0EE84432B00F08B
:1014580007858EE04E2B00F0B98406D84A2B00F0A1
:10146800D9804C2B00F08F8483E0512B00F05383FC
:101478005B2B00F08F827CE0C82B5DD006D85F2BF9
:1014880000F0E682612B00F0168372E0C92B00F0B1
:101498005D83CA2B00F0C3806BE0D02B00F01E8365
:1014A800D12B00F08B8364E0DB2B00F05C8210D83A
:1014B800D62B00F0A48105D8D32B36D0D42B00F03E
:1014C800AC8156E0D92B00F02582DA2B00F0388267
:1014D8004FE0EF2B00F0838006D8DC2B00F0488229
:1014E800DD2B00F0578544E0F22B00F0DD81FA2B6C
:1014F80000F007833DE0531C2B60107802060BD4E4
:101508001F4B1B785B0700F19085032828BF00203C
:1015180016F04AFB00F089BD00F07F00032828BFC1
:10152800002016F023FB00F080BD28460CF0E0FCFC
:10153800174B188000F079BDC6F34706122E18D84D
:10154800002729E0531C2B601178132911D8931C0C
:101558002B60104E50780C27002207FB02F306EB95
:10156800030E9EF808E0864500F03A8501321F2AEE
:10157800F3D14FF0FF3000F059BD00BFFFB30108B1
:101588002C8C0020C4710020E8210020B81900200C
:1015980012380020A00C0208B742314607DA284664
:1015A8000CF0A6FC01AB23F817000137F4E7B84AA2
:1015B80000239E4206D001A830F8130022F8130039
:1015C8000133F6E7B24B0022122903D023F8112089
:1015D8000131F9E7AF4B0120187000F027BD28460C
:1015E8000CF086FCAC4EA6F8100228460CF080FCE5
:1015F800A6F80E0200F019BD531C2B60A64B1278FA
:1016080083F8C3222A68511C2960127883F8C22201
:1016180000F00BBD28460CF06BFC00F006BD9F4B9C
:101628001A68531E09322968481C2860097803F88B
:10163800011F2968481C2860097899722968481C84
:101648002860097819759A42EDD100F0EEBC531C58
:101658002B6011780E298CD8931C2B605278032AA2
:1016680087D88D4B062000FB013383F8A6252A680E
:10167800511C2960127883F8A1252A68511C296019
:10168800127883F8A2252A68511C2960127883F8F9
:10169800A3252A68511C2960127883F8A4252A6892
:1016A800511C2960127883F8A52500F0BEBC092ECC
:1016B8007FF65FAF7A48531C07682B6013783B703E
:1016C8002B685A1C2A601B78BB70391D0023804682
:1016D8002A68501C28601078022B14BF6422FF224D
:1016E800824203F10103A8BF0246032B01F8012F30
:1016F800EED12B685A1C2A601B78642B28BF642300
:101708003B722B685A1C2A601B78FB702B685A1C8A
:101718002A601B783B7128460CF0EAFB0A2E788178
:1017280000F083842A68D8F80030511C29601278A8
:101738005A720B2E00F079842A68511C296012789D
:101748005A7000F072BC28460CF0D2FB6FF4AF67F9
:10175800C319514E9BB2C62B98BFA6F87A022846E9
:101768000CF0C6FBA6F8CC0028460CF0C1FBA6F886
:10177800CE0028460CF0BCFBA6F8D00028460CF09A
:10178800B7FB2B68A6F8CA025A1C2A601A462846D4
:1017980012F8031B86F850122A609A7886F85122AC
:1017A8001A1D2A60DB7886F83B322B685A1C2A609F
:1017B8001B7886F877322B6801332B600CF098FB86
:1017C8002B6800EB80005A1C4000A6F80C022A6027
:1017D8001B7886F82E322B685A1C2A601B7886F8EC
:1017E80032322B685A1C2A601B7886F831322B68F3
:1017F8005A1C2A601B7886F8333200F016BC294F31
:10180800002628460CF074FB17F0BCFA27F81600DF
:101818000136082EF5D100F008BC0F2E7FF4A9AED2
:10182800531C2B601778072F3FF6A3AE28460CF001
:101838005FFB194B0E2606FB0736A6F870012846F3
:101848000CF056FBA6F8720128460CF051FB2B68E9
:10185800A6F874015A1C2A601B7886F876312B6822
:101868005A1C2A601B7886F877312B685A1C2A6024
:101878001B7886F878312B685A1C2A601B7886F802
:10188800793128460CF01EFBC6F87A01CDE300BF7B
:10189800744F0020724F0020A8720020BC4A00201C
:1018A800143800202E4E0020531C2B6013780F2B69
:1018B8003FF65FAE911C2960A9495278C3EBC30378
:1018C8000B4483F800212A68511C2960127883F898
:1018D80001212A68511C2960127883F802212A689C
:1018E800511C2960127883F803212A68511C296049
:1018F800127883F804212A68511C2960127883F829
:1019080005212A68511C2960127883F8062117F0EE
:1019180059F98AE328460CF0EBFA914EA6F8E6004E
:1019280028460CF0E5FAA6F8E80028460CF0E0FA9C
:10193800A6F8EA0028460CF0DBFAA6F8EC0074E3F7
:10194800531C2B60864B127883F840222A68511C5E
:101958002960127883F841222A68511C296012787C
:1019680083F8422261E37F4B18680DF0F5FC5CE3D5
:101978001146531C2B607A4B11F8020B83F8E101D6
:101988002960517883F8E211D11C2960927883F894
:10199800E3214AE3531C2B60714E137886F8F63125
:1019A8002B685A1C2A601B7886F806322B685A1C4A
:1019B8002A601B7886F8D7302B685A1C2A601B7857
:1019C800072BA8BF0723284686F8D6300CF090FAD4
:1019D800A6F8D40029E3531C2B60624FDFF88081FE
:1019E8001378D7F8009088F8F83128460CF080FA78
:1019F800A9F820002846D7F800900CF079FA052EAF
:101A0800A9F8220040F2118328460CF071FAA8F8D0
:101A1800FA0128460CF06CFAA8F8FC012846D7F819
:101A280000900CF065FAA9F8240028463F680CF0ED
:101A38005FFA0D2EF88440F2F88228460CF058FA26
:101A4800A8F8FE0128460CF053FAA8F80002ECE2C8
:101A5800444E284637680CF04BFA388528463768D4
:101A68000CF046FA7885284637680CF041FA2B685E
:101A7800B8859A1C37682A605B7887F835302B68F8
:101A88005A1C2A601B7887F838302B685A1C2A6041
:101A98001B7887F839302B68DA1C2A609B7887F81E
:101AA800373028460CF024FAB887284636680CF0F8
:101AB8001FFA7087B9E2531C2B60294B127883F800
:101AC800F1212A68511C2960127883F80A222A68B1
:101AD800511C2960127883F80922A6E2224B1B7850
:101AE8005E0700F1A28216F023FC0FE01E4B1B7864
:101AF8005D0700F19A821D4B4FF4C872A3F88C2041
:101B080093E2194B1B7859073FF533AD0CF044F8B5
:101B18000BF0F4FD89E2164B1B78012B00F285824D
:101B2800531C2B600E4B127883F8FD252A68511C34
:101B38002960127883F8FB252A68511C29601278DD
:101B480083F8FC2571E207F0E3F86EE2531C2B6082
:101B58001178084B81B1197841F002010FE000BFFC
:101B6800A8720020BC4A00202C8C0020E82100200C
:101B7800788C0020C4710020197821F002011970B6
:101B8800931C2B60AF4B52781A7028460CF09AF9C8
:101B9800AD4EF06228460CF095F9306328460CF0FB
:101BA800A7F9B08628460CF0A3F9A84B188096F838
:101BB8003A3043F0020386F83A3036E2531C2B6081
:101BC800284692F800900CF07DF9804628460CF0E3
:101BD80079F9074628460CF075F9064628460CF0B0
:101BE80087F928460CF084F92B6801332B60B9F18A
:101BF800000F12D1944B1020C3F87C80C3F880707A
:101C080018F06CF8924A137843F001031370002E11
:101C180000F00B828F4B1E6007E2B9F1100F40F005
:101C28000482894BC3F88480C3F888700EB1894A4E
:101C3800166089490222081F83F88E2009F046FFA2
:101C4800F3E1864E00232846B3600CF03BF9B368F5
:101C58001843B060E9E128460CF04AF97F4EC6F80F
:101C6800E40128460CF044F9C6F8E80128460CF0CF
:101C78003FF9C6F8EC01D8E1531C2B60774B12787A
:101C880083F82E222A68511C2960127883F83222A0
:101C98002A68511C2960127883F831222A68511C5D
:101CA8002960127883F83322BFE128460CF020F926
:101CB8006A4EA6F8360228460CF01AF92B68A6F8E0
:101CC80038025A1C2A601B7886F83A3228460CF0EB
:101CD8000FF9A6F83C02A8E1531C2B605F4B127861
:101CE8005A71A2E1531C5D4F2B60137887F86C3250
:101CF80028460CF0FDF8A7F87E0228460CF0F8F804
:101D0800A7F87A0228460CF0F3F82B68A7F87C02AB
:101D18005A1C2A601B7887F87532082E40F2858194
:101D280028460CF0E5F8A7F8860228460CF0E0F8FB
:101D38000C2EA7F8880240F278812B685A1C2A607A
:101D48001B7887F880322B685A1C2A601B7887F822
:101D5800813228460CF0CCF8102EA7F8840240F205
:101D680064812B685A1C2A601B7887F86E322846D3
:101D78000CF0A8F82B68C7F870025A1C2A601B7868
:101D880087F8743251E1531C2B60344E137886F86F
:101D9800C8322B685A1C2A601B7886F8C932284634
:101DA8000CF0A6F82B68A6F8CA025A1C2A601B7801
:101DB80086F8CC3228460CF09BF82B68A6F8CE02A1
:101DC8005A1C2A601B7886F8D0322EE1531C2B60EF
:101DD8001778112F3FF6CDAB204E931C07F5A0774F
:101DE8002B6006EB470352789A7228460CF080F86D
:101DF80040F2ED23984205DD40F6CA039842A8BF99
:101E0800184601E040F2EE2006EB4706A0F2EE206D
:101E1800192390FBF3F0F07207E1531C2B600F4B72
:101E2800127883F8772200E10C4800232A68511CB5
:101E3800296011781A180133082B82F86412F5D139
:101E4800F3E000BFC5710020E8210020008C0020CD
:101E5800C47100203438002070220020A8720020AD
:101E6800531C754E2B601378737128460023B3609A
:101E78000CF028F8B36818432B68B0605A1C2A6025
:101E88001B7886F86C3228460CF032F8C6F8E40164
:101E980028460CF02DF8C6F8E80128460CF028F87A
:101EA800C6F8EC0128460CF023F8A6F836022846B6
:101EB8000CF01EF8A6F83802B7E00723B6FBF3F3D8
:101EC800C3EBC302B61A7FF454ABDFF884915FFA10
:101ED80083F8F3B2984500F0A8802B68D9F8001071
:101EE8005A1C2A6093F90030002201EBC20797F9C7
:101EF8000200984204D00132042AF6D1FFF739BB18
:101F0800BA1C06F101063FF434ABBB7028460BF04F
:101F1800EFFFB8802B685A1C2A601B78BB712B68AE
:101F28005A1C2A601B78FB712B685A1C2A601B7884
:101F38007B722B685A1C2A601B783B72C9E73E4E9D
:101F480006F1400728460BF0D3FFA6F898032B6844
:101F58005A1C2A601B7886F89A332B685A1C2A6008
:101F68001B7886F89B330436BE42EBD15DE0531CE8
:101F78002B6017781F2F3FF6FCAA052E7FF4F9AACD
:101F880028460BF09FFFC6372B4B43F827000BF072
:101F98008BF84AE0531C2B60134613F8020B2B6096
:101FA800D31C51782B6092780DF054F800283CD15E
:101FB800FFF7DFBA0021112220481EF0A5FD102EE0
:101FC8001D494FF0000328BF1026B3422DD22A68BE
:101FD800501C286010785A18013382F80806F4E774
:101FE800154A01F5AA7102EB8101154A1344002034
:101FF80093F830304B702B685A1C2A601B788B7012
:102008002B685A1C2A601B78CB702B685A1C2A60D4
:102018001B780B710B4B1A680B4BC3F8902017F009
:102028000EF80A4B80F0010018700120608140B260
:102038000BB0BDE8F08F00BFA8720020B078002078
:10204800700C0208BC4A0020E8210020240E002061
:10205800B87E00206B4B6C4A2DE9F04F5E891468FE
:10206800B3F804804FEA062AB4EB0A0A1C894FF039
:1020780000054FF0000B65EB0B0BA4FB0A6704FB94
:102088000B77F40944EA47644FEA084614EB06085C
:102098004FEAE715DC884FF0000745EB070987B0E2
:1020A800A4FB0A67CDE90489B3F8028004FB0B7727
:1020B800340A44EA07644FEAC83614EB06089C89D8
:1020C8004FEA27254FF0000745EB0709A4FB0A67ED
:1020D80004FB0B77F40D44EA472414F5FA664FEA3B
:1020E800E75545F10007B6F5FA6F77F10003CDE93A
:1020F8000089CDE90267964667DA0526A4FB062320
:1021080006FB053302FB05F604FB0366DDE90489DB
:10211800A2FB042333445F104FEA3206B8EB0608EB
:102128004FEA920669EB070946EA83769F10DDE9D4
:102138000023921B63EB0703DDE90267CDE9002367
:10214800324A4FF0FF33964277EB0303CDE9048917
:1021580028DA40F6AC52A4184FF000035D4104FBA6
:1021680005F3A4FB044505EB43056FF00602664240
:1021780002FB0566A4FB0223334418EB020649EB75
:102188000307CDE904670B26A4FB062306FB0533EA
:10219800DDE900455B104FEA3202A41A65EB03053E
:1021A800CDE900450AFB0BF3DDE90245AAFB0AABC2
:1021B8000BEB430B4FEADA7242EA4B02A41A4FEADE
:1021C800EB7365EB0305CDE90245DEF80440009B9F
:1021D800019DA4FB032304FB0533560D46EAC326E1
:1021E8005F15DDE90434F31A67EB0404DB0B43EAFB
:1021F800444300B1036009B1029B0B6007B0BDE81E
:10220800F08F00BF747000209035002024FAFFFF83
:10221800BFF34F8F0549064BCA6802F4E0621343C7
:10222800CB60BFF34F8F00BFFDE700BF00ED00E0BC
:102238000400FA05036B10B5044663B9836D9989E8
:102248001A88890692B206D5900604D5E26A2AB39E
:10225800988880B29047626BA36DA2B999891A8851
:10226800090692B20FD510060DD5A26A616A8A4294
:1022780022D0A1692069895C99800132B2FBF0F112
:1022880000FB1122A262998A1A88C90592B218D550
:10229800D20716D54FF6F7721A8012E09B88E269CA
:1022A8006169DBB28B54E369E1680133B3FBF1F296
:1022B80001FB1233E361CEE7DA6822F08002DA60CC
:1022C800E1E710BD027B01681F2A10B588BF203ADC
:1022D8004FF020038CBF4C680C689340234214BF16
:1022E80001230023E3B144684369226822F0010214
:1022F80022600C4A542404FB0322536852891C6848
:10230800A3899BB223EA0203A381027B1F2A4FF011
:10231800200303D9203A9340CB6010BD93408B60D3
:1023280010BD00BF8C2200200C4B1B7830B59BB130
:102338000B4B1A780B4B03EBC2020832002408330C
:10234800934209D053F80C0C33F8085C4462818935
:10235800294389B28181F2E730BD00BF701F002098
:102368007C26002084260020184B1B7870B55BB3B0
:102378004B0099B281EA111383EA112303F00F038A
:1023880043EA01135424124E9BB210FB04F40022BA
:10239800111913F4004F314402F1040214BF0E2541
:1023A80007255B00402ACD609BB2F1D1084B54222F
:1023B80002FB003012224368DB685A604368DA681F
:1023C800136843F00103136070BD00BF701F002045
:1023D8008C220020027B01681F2A88BF203A4FF018
:1023E80020038CBF4968096893400B4214BF01233E
:1023F80000239BB10A4B00221A70426801681368D7
:1024080023F001031360027B1F2A4FF0200303D936
:10241800203A9340CB60704793408B60704700BF71
:10242800444900200C2343439B4A9C49D3589C4A67
:10243800F0B59D8AADB2ECB214F0010F4FEA00106E
:1024480031D01C8824F400642404240C1C801C88CB
:10245800A4B244F480641C80002414720C18A5797A
:10246800ADB1557A15B9E478FF2C10D10124547216
:102478000C182479022C01BF1C88A4B244F400640F
:102488001C800C18A47844F001041C82EDE00D189F
:10249800AC7804F0FE041C82EC78FF2C00F0E58098
:1024A800FF241472E1E0A6073BD5BFF35F8F0C1839
:1024B8002579EDB2012D13D1A4798CB1547A7CB170
:1024C8001C8824F480642404240C1C80BFF35F8FD0
:1024D8001C8B1C889572A4B244F400741C801BE009
:1024E8001C8BBFF35F8F0C182579022D0AD1A479B4
:1024F80044B1547A34B11C8824F480642404240C34
:102508001C80ACE00C182579032D05D1A4791CB1E9
:10251800547A002C40F0A3809C88A4B244F48064D0
:10252800A2E067075CD50D1801249472AC79002CE1
:102538003CD0547A002C39D02C7992F90860022CBE
:102548001C881FD924F480642404240C1C80B3F84C
:1025580010E0EF685FFA8EFE07F806E0F4B21E8816
:10256800B6B246F400761E80EE68A51C15720134DA
:102578001D8A64B2EDB235559C88A4B244F48064D7
:102588009C8029E0A4B244F400741C80B3F810E0E5
:10259800EF685FFA8EFE07F806E0F4B2661CEF6893
:1025A8001D8A76B2EDB2BD5503340BE0547A14B9E6
:1025B8000C18647944B11C88A4B244F400741C80DB
:1025C800147A0134147207E01C88A4B244F48074AD
:1025D8001C80334C012565721C88E605FCD444E058
:1025E80004F0400404F0FF0604B301EB000E1C8A5B
:1025F80092F908C0DEF80C70E4B207F80C405FFAF4
:102608008CF6751C6DB29EF804701572EC1CA7420E
:1026180005D19C8824F480642404240C9C800C1824
:102628002479A54221D1023616721EE02D061CD54A
:1026380092F908506C1C0AD00F186C1CBE68755DA6
:102648001D823D7964B2A54214720ED107E00C18C0
:102658001672E5781D82A5790DB924792CB99C8864
:1026680024F480642404240C9C800C1892F90860DB
:1026780024790B4D621C96420CD100226A72AA7A08
:102688002AB19A8822F440721204120C9A800844E3
:1026980000234370F0BD00BF883802087472002020
:1026A80090350020044BDA7A02F0FF0012B10022C4
:1026B800DA720120704700BF9035002037B5104B03
:1026C80004465D6818786A460621A847A8B19DF8AF
:1026D80000209DF8013043EA022323809DF8022060
:1026E8009DF8033043EA022363809DF804209DF897
:1026F800053043EA0223A380012003B030BD00BFA8
:102708004469002013B5104B04465B686A460621ED
:102718003B209847A8B19DF800209DF8013043EA76
:10272800022323809DF802209DF8033043EA022308
:1027380063809DF804209DF8053043EA0223A380B6
:10274800012002B010BD00BF44690020014B0122E6
:10275800DA727047903500202DE9F0410C4C0D4D90
:102768008046206816460F4617F0B0FE48F08001F4
:10277800284617F08EFF3B4600223146284617F0C0
:1027880059FF206817F0A7FE0120BDE8F08100BFBF
:102798006469002000300140F8B50A4C0A4D07462C
:1027A80020680E4617F092FE3946284617F071FF4A
:1027B8003146284617F06DFF206817F08CFE01207F
:1027C800F8BD00BF64690020003001402DE9F041E8
:1027D8000C4C0D4D8046206816460F4617F076FEC5
:1027E80048F08001284617F054FF3B460022314646
:1027F800284617F01FFF206817F06DFE0120BDE87E
:10280800F08100BF6869002000300140F8B50A4C2B
:102818000A4D074620680E4617F058FE39462846E6
:1028280017F037FF3146284617F033FF206817F0B6
:1028380052FE0120F8BD00BF686900200030014049
:1028480013B5062204466B4603211E2016F03AFBF8
:1028580000283DD09DF800209DF801309DF8021019
:1028680043EA02231BB21B4A07EE903A92ED007A24
:10287800F8EEE77A012067EE877A92ED027AFDEEAC
:10288800E77A17EE903A23809DF8033043EA012354
:102898001BB207EE903AF8EEE77A9DF8041067EE5F
:1028A800877A92ED017AFDEEE77A17EE903AA380E7
:1028B8009DF8053043EA01231BB207EE903AF8EE83
:1028C800E77A67EE877AFDEEE77A17EE903A63804B
:1028D80002B010BD0400002007B5032201AB00219F
:1028E800772016F0EFFA9DF805309DF804001B02DA
:1028F80043EA00439DF80600184303B05DF804FB63
:1029080008B5FFF7E9FF014B586008BD9035002076
:1029180008B5FFF7E1FF014B186008BD90350020AE
:1029280013460A460146682016F0CCBA012248210F
:10293800772016F07DBA01225821772016F078BA50
:102948000A460146682016F073BA2DE9F74332208B
:102958000CF0F5FF112200211E2016F069FA602202
:1029680001211E2016F064FA64200CF0E8FF684686
:10297800FFF766FF0024DFF840810A272646254630
:10298800012202211E2016F053FA32200CF0D7FF44
:102998006846FFF755FFBDF90220BDF90010BDF9E3
:1029A80004308A421644A8BF0A4693421D44A8BF71
:1029B800134643450C4407DB012017F054FD013F43
:1029C800DED14FF0010801E04FF00008122200218B
:1029D8001E2016F02DFADFF8E0900A2701220221C6
:1029E8001E2016F025FA32200CF0A9FF6846FFF7E2
:1029F80027FFBDF90220BDF90010BDF904308A4255
:102A0800A6EB0206A8BF0A469342A5EB0305A8BF9A
:102A180013464B45A4EB010405DB012017F023FD09
:102A2800013FDBD101E04FF0000807EE904ADFEDEF
:102A38001F6A1F4FF8EEE77A702286EEA77A002108
:102A48001E20F0EEC77AC7ED007A07EE906AF8EE1E
:102A5800E77A86EEA77ADFED176AF0EEC77AC7ED58
:102A6800017A07EE905AF8EEE77A86EEA77AF0EE4A
:102A7800C77AC7ED027A16F0DBF9202201211E2061
:102A880016F0D6F9002202211E2016F0D1F9642092
:102A98000CF055FFB8F1000F04D14FF07E533B60A6
:102AA8007B60BB6003B0BDE8F08300BF00406F46A9
:102AB8000400002001C05E4601F0FFFF38B504465F
:102AC8002021227B406923681F2A07D95D68203AA4
:102AD80001FA02F2154237D0DA6005E01D6801FA02
:102AE80002F2154230D09A60217B1F294FF0100264
:102AF80085BF20398A408A40DA6098BF9A60227B75
:102B08001F2A09D95968203AD140CD070CD501218F
:102B180001FA02F2DA6007E01968D140C90703D563
:102B2800012101FA02F29A60826B136823F0010313
:102B38001360826AC36A9A4203D004300CF06BFFB8
:102B480002E0012380F85030227B23681F2A4FF0CF
:102B5800080107D95868203A01FA02F2104207D052
:102B6800DA6005E0186801FA02F2104200D09A60B3
:102B7800227B1F2A4FF0040107D95868203A01FA2E
:102B880002F2104208D0DA6038BD186801FA02F281
:102B9800104200D138BD9A6038BD2DE9F743494D40
:102BA8002E7B002E40F08B80474B1B68002B00F0DB
:102BB8008680187817F066FC1E2383710446C67158
:102BC800314617F0F7FC414B2B61204617F0A1FC6A
:102BD800002865DB3E4BDFF8088105F1100243F859
:102BE800202018F80070204617F09DFC81462046EA
:102BF80017F08FFCC1B201F0030001F0FC0101F1F4
:102C0800804303F59C33800099680F22824021EAB3
:102C180002029A6099685FFA89F202FA00F00843A2
:102C28009860204617F075FC2A4B012101FA00F044
:102C38005861D3F800E0C2430EEA020EC3F800E080
:102C4800D3F804E002EA0E0EC3F804E0D3F800E07B
:102C580040EA0E0EC3F800E0D3F808E002EA0E0ED0
:102C6800C3F808E0D3F80CE002EA0E02DA601A4A68
:102C780013681843194B1060DA5DF02A10DDF02252
:102C8800DA5508EB070301A81B7C8DF804300323F1
:102C98008DF805308DF806608DF8071016F0A6F847
:102CA800204617F036FC012313FA00F01EBF094A2C
:102CB800136818434FF0010318BF10602B7303B05B
:102CC800BDE8F083903500205C6900205527000896
:102CD800D08C0020003C0140083C01407C220020B0
:102CE800C40E020810B50446FFF757FF4FF40063FF
:102CF800238110BD10B50446FFF74FFF4FF4006362
:102D0800238110BD38B5264C0546FFF746FFA3685A
:102D180080216B20984764200CF011FEA3680721DE
:102D28006820984764200CF00AFEA36800216B20F5
:102D3800984764200CF003FEA36801216B20984794
:102D48000F200CF0FCFDA36818211B2098470F20CA
:102D58000CF0F5FDA36818211C2098470F200CF0F3
:102D6800EEFDA36829461A2098470F200CF0E7FDCE
:102D78000C4AA36811781920984764200CF0DFFDED
:102D8800A3681021372098470F200CF0D8FDA368BE
:102D98000121382098470F20BDE838400CF0CFBDFE
:102DA800446900207469002038B51D4C238823F03D
:102DB80040031B041B0C2380238823F038031B04C7
:102DC8001B0C43F03003238023889BB243F040035D
:102DD8002380054601200CF0A7FD2846FFF792FF47
:102DE80010216A20FFF7D8FC64200CF0A8FD238886
:102DF80023F040031B041B0C2380238823F0380393
:102E08001B041B0C43F00803238023889BB243F068
:102E1800400323800120BDE838400CF085BD00BF89
:102E28000030014010B50446FFF7B7FE4FF40063C9
:102E3800238110BDF7B55C4E0546FFF7AEFE377D22
:102E4800002F72D1594C238823F040031B041B0C1C
:102E58002380238823F038031B041B0C43F038031A
:102E6800238023889BB243F04003238080216B207A
:102E7800FFF7CCFC96200CF062FD03216820FFF7D9
:102E8800C5FC96200CF05BFD03216B20FFF7BEFC10
:102E98000F200CF049FD10216A20FFF7B7FC0F2026
:102EA8000CF042FD39466C20FFF7B0FC0F200CF007
:102EB8003BFD3F4B19201978FFF7A8FC0F200CF0B9
:102EC80033FD18211B20FFF7A1FC0F200CF02CFD6F
:102ED80018211C20FFF79AFC0F200CF025FD10216B
:102EE8003720FFF793FC0F200CF01EFD012138203E
:102EF800FFF78CFC0F200CF017FD238823F040030C
:102F08001B041B0C2380238823F038031B041B0C91
:102F180043F00803238023889BB243F040032380B7
:102F280001200CF001FD01233375204C238823F088
:102F380040031B041B0C2380238823F038031B0445
:102F48001B0C43F03803238023889BB243F04003D3
:102F5800238029461A20FFF759FC01200CF0E4FCD5
:102F6800238823F040031B041B0C2380238823F0B1
:102F780038031B041B0C43F00803238023889BB2EF
:102F880043F0400323806846FFF798FB9DF9023021
:102F9800013306D19DF90030013302D106200CF02F
:102FA800FFFC03B0F0BD00BF9035002000300140A9
:102FB80074690020114B37B518781C46B0B1104D14
:102FC80005238DF80030286800238DF8013017F0AC
:102FD8007DFA02236A4601A90A4817F02BFB2868E4
:102FE80017F079FA9DF8050000F0010000F00100E3
:102FF800207080F0010003B030BD00BF8035002094
:103008007C350020003C0040064B70B51D68064624
:103018001C46FFF7CFFF18B923685B1BB342F8D9EA
:1030280070BD00BF1869002073B503238DF8043004
:10303800030C8DF805308DF80700030A06200E46AC
:1030480014468DF80630FFF7DFFFA0B10B4D286856
:1030580017F03CFA04230DEB03020021084817F08F
:10306800E9FA234600223146054817F0E3FA2868B2
:1030780017F031FA204602B070BD00BF7C35002041
:10308800003C004038B5074C0546206817F01EFA8A
:103098002946054817F0FDFA2068BDE8384017F0C2
:1030A8001ABA00BF7C350020003C00400B4B984208
:1030B80012D0A3F5806398420ED003F5804398425E
:1030C8000AD003F58063984206D003F580639842DE
:1030D8000CBF012002207047012070470004014006
:1030E80008B5054B5B6903B19847044B044A1A605D
:1030F80072B6FFF78DF800BF44690020FCFF01207D
:10310800EFBEADDE08B5034B5B6903B1984772B6F5
:10311800FFF77EF8446900200148FFF78BB800BF2D
:10312800140000200148FFF785B800BF980400206C
:103138000148FFF77FB800BF1C090020284B9842C0
:103148003ED003F5806398423AD0A3F57A7398424B
:1031580038D003F58063984234D0A3F57A73984247
:1031680032D003F5806398422ED0A3F57A73984243
:103178002CD003F58063984228D0A3F57A7398423F
:1031880026D003F58063984222D0A3F57A7398423B
:1031980020D003F5806398421CD0A3F57A73984237
:1031A8001AD003F58063984216D0A3F57A73984233
:1031B80014D00C4B0C4A90420CBF184600207047A4
:1031C8000A4870470A4870470A4870470A487047D3
:1031D8000A4870470A4870470A48704701487047CC
:1031E8001060024000800028B8640240208000106F
:1031F8000088001000802010008000182080002027
:103208000088002000802020F7B50E4F0E4D1C24AA
:1032180004FB00702E6B046934432C634361437BC9
:103228008DF804300023816092098DF8063001A8DA
:1032380001238DF805208DF8073015F0D7FD03B070
:10324800F0BD00BFB01D00200038024070B5064E2A
:10325800064C1C2303FB0060256B03692B43236387
:103268004276017670BD00BFB01D002000380240D4
:103278002DE9F34798465B4B174603EB800205465A
:103288009469002C00F0A7803033636004F16E036A
:10329800A36104F26E23E361A26EE1604FF4007350
:1032A800236163612368E365261DB2B1236E4E482E
:1032B800E363626300231C2101FB030EDEF804E0D4
:1032C800724501D1D8B203E00133102BF4D10020AC
:1032D8006A1CD2B20C21FFF7B9FF626EB2B1236E3D
:1032E80041482364A26300231C2101FB030EDEF87E
:1032F80004E0724501D1D8B203E00133102BF4D1B8
:1033080000206A1CD2B20B21FFF7A0FFE36D94F8EE
:103318006D0004336365A36517F0B4F8814694F82B
:103328006C0017F0AFF8824694F8740408B115F0F1
:103338003FFD94F8750408B115F03AFDD4F87014FF
:1033480019B12A4A136B0B43136318F0080F0AD0FC
:103358000B23013589F8063089F8075094F876244C
:103368001221484619E0BA070BD50B2389F8063015
:103378006B1C89F8073094F876240221484617F028
:10338800DDF8FB070BD50C2301358AF806308AF8DF
:10339800075094F876240221504617F0CFF8D4F855
:1033A8007C24134994F877042346FFF72DFFE26B3A
:1033B8009AB994F878348DF80430D4F880348DF8BC
:1033C80006209B098DF8053001A801238DF80730E8
:1033D80015F00CFD01E0204600E0304602B0BDE8E3
:1033E800F08700BFC40E0208B01D0020003802405C
:1033F800C52A00080348D0F8AC3113B100F5D270E3
:1034080018477047B01D00200348D0F8903113B119
:1034180000F5C47018477047B01D00200348D0F865
:10342800743113B100F5B67018477047B01D00200D
:103438000348D0F8583113B100F5A8701847704701
:10344800B01D00200348D0F83C3113B100F59A7044
:1034580018477047B01D00200348D0F8203113B139
:1034680000F58C7018477047B01D00200348D0F84D
:1034780004310BB1FC301847704700BFB01D002065
:103488000348D0F8E8300BB1E0301847704700BF68
:10349800B01D00200348D0F8CC300BB1C430184719
:1034A800704700BFB01D00200348D0F8B0300BB102
:1034B800A8301847704700BFB01D00200348D0F857
:1034C80094300BB18C301847704700BFB01D0020F6
:1034D8000248836F0BB1703018477047B01D002049
:1034E8000248C36D0BB1543018477047B01D002017
:1034F8000248036C0BB1383018477047B01D0020E4
:103508000248436A0BB11C3018477047B01D0020B1
:103518000248836803B11847704700BFB01D0020F8
:103528002DE9FF47894E0C24444306EB04098046E5
:1035380099F8040016F0A6FF054699F8050016F05C
:10354800A1FF152208F10103DBB2AA711622EB7163
:1035580007468271C37199F8060015F029FC3459A1
:10356800A38823F440731B041B0CA380284616F081
:10357800B2FF384616F0AFFF1121284617F01AF8A7
:103588001121384617F016F84FF008094FF0640A71
:10359800284616F0B5FF40B9BAF1000F05D00A2049
:1035A8000CF0C2F90AF1FF3AF2E7284616F08EFF4E
:1035B8000A200CF0B9F9284616F08DFF0A200CF005
:1035C800B3F9B9F10109E3D1384616F07FFF0A20B3
:1035D8000CF0AAF9284616F079FF0A200CF0A4F995
:1035E800284616F078FF0A200CF09EF9384616F0A7
:1035F80072FF04221221284616F0A0FF042212218D
:10360800384616F09BFF524B9C4207D1514A136A29
:1036180043F4001313624FF4001014E04E4B9C4225
:1036280007D14C4A136A43F4800313624FF48000B5
:1036380009E04A4B9C4208D1464A136A43F4000306
:1036480013624FF400000DF0A9FEA388444923F447
:1036580040731B041B0CA3800C2303FB0866414B1F
:10366800F779002F14BF1F460F4623889BB243F0FB
:1036780001032380A58825F03F052D0468462D0CFD
:103688000DF042FF029A3848B2FBF0F00543ADB2A4
:10369800A580218821F001010904090C07EB4703E3
:1036A800B2FBF3F39BB22180002B4FF4967101FB20
:1036B80000F208BF01234FF47A7192FBF1F2013254
:1036C80092B243F400432284A38323889BB243F03D
:1036D80001032380238823F4816323F002031B045E
:1036E8001B0C43F4806323804FF480432381238899
:1036F80023F080031B041B0C23800025737A8DF8AC
:103708000030012468468DF801508DF802508DF87C
:10371800034015F06BFB9DF80320337A8DF80030D9
:103728008DF801508DF802501AB1684615F05EFB0D
:1037380008E05A09203203F01F030C4904FA03F386
:1037480041F8223004B0BDE8F08700BF883802088D
:10375800005400400038024000580040005C00401F
:10376800801A060000350C0040420F0000E100E01E
:103778000C2337B54343254AD458A38A9BB20193F7
:10378800019B13F4706F1FBF0301214A0121D1541B
:10379800019B13F4E06F05462BD0238BA38823F4F9
:1037A80080631B041B0CA380019B9A0521D42388EA
:1037B8009B051ED42388D80510D52388D905FCD4A9
:1037C80023889BB243F40073238023889A05FCD492
:1037D8006B1C0ED02846FFF7A3FE0AE023889BB295
:1037E80043F400732380A38823F440731B041B0C49
:1037F800A380A38A23F470631B041B0CA382044BCD
:1038080003EB051500236B7003B030BD8838020840
:10381800747200200220FEF705BE0220A8E70120EE
:10382800FEF700BE0120A3E70020FEF7FBBD002045
:103838009EE782B0002301930093264B1A6842F456
:1038480080321A601A6802F400320092019A01323A
:103858000192009A1AB9019AB2F5A04FF2D11D4B04
:103868001B6813F4003318BF01230093009B012B3E
:103878002ED1184B18491A6C42F080521A640A6803
:1038880042F440420A609A689A609A6842F4004298
:103898009A609A6842F4A0529A60104A5A601A686C
:1038A80042F080721A6019680A4A8901FBD50C4BEC
:1038B80040F205711960936823F0030393609368DD
:1038C80043F002039360936803F00C03082BFAD1CA
:1038D80002B07047003802400070004008544007AA
:1038E800003C0240104808B5D0F8883043F4700313
:1038F800C0F888300D4B1A68002142F001021A60A6
:1039080099601A6822F0847222F480321A60084A98
:103918005A601A6822F480221A60D960FFF789FF7A
:103928004FF00063836008BD00ED00E000380240FE
:10393800103000242DE9F04F2DED028B8DB0074695
:103948000BF019FAC44B1E78002E41F09585C34D33
:103958002B685B0541F19085C14CDFF84883637A99
:10396800002B00F02282D8F80020E368D31A7C2BC1
:1039780040F21B82BB4BDFF830B3B3F8EC90237CEA
:10398800DFF828A39FEDB88AE2600133237406F1BB
:103998002400C0B20BF096F95BF8263007EE903A97
:1039A800BAF8083007EE103AF8EEE76AB8EEC77AC8
:1039B8000136C6EE877A67EE887AFDEEE77ACDEDB6
:1039C800017ABDF904000BF06AF9032EDFD130202B
:1039D8000BF078F9A54BDFF888A2B3F900000BF0DB
:1039E8005EF90BF067F9237C9E0733D1DAF80C20D7
:1039F80041F288339A421AD910200BF063F96426F1
:103A0800DAF8140090FBF6F000B20BF048F9212028
:103A18000BF058F9DAF8140090FBF6F306FB1303E1
:103A280083EAE370A0EBE37000B20BF038F91420DE
:103A38000BF048F98E4BB3F904000A2390FBF3F01E
:103A48000BF02DF91C200BF03DF900200BF027F9A5
:103A58000BF030F9237C580740F07E8102200BF0F0
:103A680031F97F4B98696423323090FBF3F000B250
:103A78000BF015F97F4B0320B3F906600BF022F920
:103A88007D4B1B7859074FF0050A96FBFAF6B6B23C
:103A98000BD54946794816F0F1F920B92B6813F08F
:103AA800100F18BF002630B205E0754B1B68D88987
:103AB800B0FBFAF000B20BF0F2F82B689A0772D557
:103AC800DFF8ECA19AF8001000296CD0A68BDFF87B
:103AD800E4913601B9F800206423B6B203FB021260
:103AE8004B00B2FBF3F346EA0326B6B2C3F3032353
:103AF8001E4306200BF0E6F830B20BF0D0F8A38B8B
:103B08009AF8002001339BB293FBF2F102FB1133C8
:103B1800216AA3838B7B012B05D139200BF0D2F8C6
:103B2800B9F9000021E0B9F800606E237343152647
:103B380093FBF6F6CB7BB6B20BB196FBF2F63A20C6
:103B48000BF0C0F84FF0640AB6FBFAF90FFA89F0E7
:103B58000BF0A5F80AFB19663B200BF0B3F8B0B2DE
:103B6800461D0A2096FBF0F000B20BF098F82820CA
:103B78000BF0A8F8434B0A201B6893FBF0F000B247
:103B88000BF08DF804200BF09DF83D4B1B68DB898A
:103B980013B10DF0E7FD03E03B4B186880F310000C
:103BA80000B20BF07CF8394B1B689B0640F1C980CA
:103BB800374B1A7812F0020F99461FD0DFF8F8A099
:103BC80011200BF07FF8BAF80000324B4FF4F3667F
:103BD800704390FBF3F000B20BF061F819200BF082
:103BE80071F8BAF800004643642096FBF0F696FB9D
:103BF800F0F300FB136000B20BF051F8264B1E885F
:103C080099F8003013F0020F08BF002601200BF0CE
:103C180059F830B20BF043F809200BF053F80020A4
:103C28000BF03DF81D4B1E781D4B1A88B2F5967F98
:103C380009D9237C03F00F03072B04D842F20F762F
:103C4800964228BF164605200BF03CF8236A5B7B9A
:103C5800B3BB30B250E000BFB84A0020A8500020E3
:103C6800A8350020A872002000007A44E82100202E
:103C7800028C00200A3800202C8C00200C750020B3
:103C8800D04B0020F0210020D44B00207069002088
:103C9800C4710020A08601001C220020C5710020EC
:103CA800AC0D002018690020E88B00201C6900205A
:103CB800D84B0020DA4B0020008C00206666E63FD7
:103CC800203E07EE906A5FED036AF8EEE77A87EE2A
:103CD800A67AF6EE006AB5EEC07AF1EE10FAFEEEBC
:103CE800007A58BFF0EE667A37EE277AFDEEC77A8B
:103CF800CDED017ABDF904000AF0D1FF99F8003042
:103D08009E0703D494F82430012B04D1012384F8AE
:103D18002430C3481CE0C34BDFEDC36A1B6A93ED34
:103D2800017AD3ED027A27EE267A67EEA67ABDEEFF
:103D3800C77AFDEEE77A8DED047ACDED057A04A811
:103D480006E0BA4A92E8030004AB83E80300184689
:103D58000AF0C8FF0AF0AEFF237C282B25D1B14B0F
:103D6800D8F800604FF03C09002217201A740AF0B6
:103D7800A9FF4EF66020B6FBF0F0B0FBF9F209FBA4
:103D88001200000200B20AF08AFF18200AF09AFF17
:103D98004FF47A73B6FBF3F3B3FBF9F009FB103079
:103DA80000B20AF07CFF0AF085FF94F825209D4BAD
:103DB800002A00F070819A6A9D49BA1A8A4240F234
:103DC800C480002283F82E2083F83020994A128874
:103DD800D1B2120A83F84A1083F84B2083F84010B6
:103DE80083F84120996DD8F80020511ADA6D107CBB
:103DF8004FF47A72424391420DD38F4A12689A6502
:103E08008E4A1278013A012A9FBF102283F82E2089
:103E1800022283F830208A4B82491A68894B0A208B
:103E280092FBF0F284F84820121284F84920864A5E
:103E38001B6893FBF0F384F84C301B1284F84D3068
:103E48001278824B90071B7884F87A3003D42D239C
:103E580081F87B3078E0042B8CBF3323322381F840
:103E68007B306F4BDFF80082D3F800A05868784A9F
:103E7800784B9AFBF2F14FF0060C08FB01A90CFBFA
:103E880009F901EB810199FBF3F601EB810103FBD1
:103E9800169976B206EB810190FBF2F289B208FB23
:103EA80002080CFB08FC84F86A1002EB8202090A7B
:103EB80084F86B1002EB82029CFBF3F103FB11C345
:103EC80049B24FF0640E01EB820293FBFEF384F8D3
:103ED80071301B1292B284F872305F4B84F86F20F5
:103EE800120A84F870201A8899FBFEF92423534398
:103EF8004FF47A7293FBF2F384F86730C3F3072325
:103F080084F86830554B84F86C901B8884F87330BB
:103F18001B0A84F87430524B1B8803F5FA739BB262
:103F280084F875301B0A84F876304E4B4FEADA7AFB
:103F38004FEA2929C00F1B8884F869A084F86D907E
:103F480084F86E0084F87C30A76294F88C90354E23
:103F5800B9F1000F10D1D6F894000BF06AFEC0B288
:103F6800012809D90228DFF8048101F0D9810AF073
:103F780043FE012388F80230D4F89860294B002EBC
:103F880000F0898093F88C203AB1D3F8A02040F64D
:103F9800B731BA1A8A4218D87DE0012283F88C20FA
:103FA800D3F8A4201278022A06D8D3F89400022164
:103FB80004300AF00BFE04E00221D3F894000BF061
:103FC80029FE002384F8A83063E093F89C20BAB94E
:103FD800C3F8982083F88C20D3F8A4201278022AFA
:103FE80006D8D3F89400012104300AF0EFFD04E06C
:103FF8000121D3F894000BF00DFE0AF0FDFD48E016
:10400800013AD2B283F89C2093F8A81093F8A9003B
:1040180072BB4A1C013083F8A82083F8A90034E059
:1040280014220020A83500208096184B1C0F020887
:104038003F0D0300DA4B002018690020464E00208F
:10404800F0210020D44B0020C4710020C57100204D
:104058008096980040420F00008C00201E2200200D
:104068001C22002020220020806967FFAC0D002060
:104078003246013012F801EBC3F898200EEB010626
:1040880083F8A86083F8A9007146D3F8940016F065
:10409800FDF8C4F8A070BF4A94F8AA6013680293A8
:1040A8000192BD4B002E00F0A183D3F8AC20002A6A
:1040B80000F09C8393F8B020013A012A00F296831D
:1040C800DFF8DC9298464FF0010AD4F8AC00B24F02
:1040D8000BF0AFFD0146002857D0D8F8AC000BF024
:1040E800A2FD019A83B27E2B176807D1002388F8B6
:1040F800B13088F8B23089F80330E6E799F8032040
:10410800002AE2D198F8B11071BB1B2B09D1D8F85D
:10411800AC000BF08EFD20BBC8F8B47088F8B2A0D4
:10412800D3E70D2B1DD188F8B1A088F80030A8F886
:10413800B810CAE798F8BA7027B180F02000C3B267
:1041480088F8BA204A1CD2B2092A84F8B1206354EC
:104158000FD1B8F8B820C2F1FF02934201D188F814
:10416800BBA089F803A0B0E77D2BE3D188F8BAA0FB
:10417800ABE7082AA9D8B8F8B800034403EB13231F
:1041880003F0FF03A8F8B8309FE7019B1A68D7F837
:10419800B430D31A41F65832934203D9032387F82F
:1041A800B03023E397F8BB80B8F1000F5DD07B787F
:1041B80087F8BB00302B58D1BB784FEA531CBCF1B1
:1041C800010F02D087F8BC005FE003F00F0E03F088
:1041D800100303F0FF029BB1FB783879A7F8C800F9
:1041E80007F1CC02C7F8C0201A44434087F80C31C5
:1041F800A7F8CA10C7F8C42087F8BCC07B1D0AE01E
:1042080097F8BC308BB397F80D31013303F00F03E7
:10421800734508D1FB1CDFF8809194F80C21002726
:1042280009F1080A02E087F8BC201EE0D4F8C4109F
:10423800D4F8C0008142584901F1080B0DD013F899
:10424800017B00F1010C534582EA0702C9F8C0C09E
:1042580007704746EAD3504900E00FB181F80C21B6
:104268005B454D4F05D187F80DE10027DFF8348114
:1042780082E01A7897F80C319A424FF0000287F8DA
:10428800BC2005D0B7F9C81001200AF057FCECE7AC
:10429800D7F8C030C7F8C43007F1CC03C7F8C0302E
:1042A80007F58E7807F5077307F5887107F1C000E1
:1042B800C7F81431C7F81081A7F81821A7F81A21F0
:1042C800FBF75EFF0130434606D1D7F81021511C99
:1042D800C7F8101102211170D4F81021C4F8103158
:1042E8000123C4F8142184F81C32BEE7B0F5047F1A
:1042F80000F0378100F2CA80B0F5887F00F0A8810D
:10430800B0F5007F00F04881B0F5807F00F0508163
:10431800BEF1000F00F06782019902980968091A36
:10432800012931D8B9F1000F3ED108EB43021089B9
:1043380010B94B464FF403600133B0F5E06FDBB2C0
:10434800324600F09881D1D9B0F5026F00F023828F
:1043580040F2EB80B0F5046F00F08481B0F5116F86
:1043680000F02A82B0F5036FD2D184F81D320B4BCE
:104378001B689A0600F1E98094F8B2E094F81C9260
:1043880094F81D320022C3E7002A7BD084F81D323E
:1043980078E000BF18690020A83500207069002067
:1043A800AC0D00201C0F02080AB184F81D32BA4A6D
:1043B800D4F8101102F58E739942194694F81E32FA
:1043C80024D1581C82F81E02B2F91A2103F00F03F7
:1043D80043F01003002AD4F81421B8BF43F0200397
:1043E8008DF81030531A94F818218DF81130534075
:1043F80084F81F320DF11203D4F814E194F81F2247
:10440800DFF894C200200DF1160117E0591C03F0E3
:104418000F038DF8103082F81E120DF11103EBE72F
:10442800D4F81061C6EB0E07002F13DD701CCCF812
:104438001001307803F8010B424048468B42EFD315
:1044480008B184F81F228B420AD104A932200AF04D
:104458008BFB15E00028F6D08F4880F81F22F2E782
:1044680094F81F0218705A1C00238A4202D202F8DC
:10447800013BFAE704A932200AF076FB4FF0000965
:1044880084F81C92002384F8B230AFE1B0F5826F53
:1044980000F02081B0F5C06F00F09A80B0F5806F11
:1044A8007FF436AF84F81D3294F824327A4A013307
:1044B800DBB2032B88BF012382F8243294F824123C
:1044C80042F210735943754B1B78D80748BF013126
:1044D8009A0748BF02315B07714B1B8848BF0431FC
:1044E800D80748BF0A319A0748BF1431180648BF91
:1044F8002831DA0548BF2831580748BF64311A0700
:1045080048BFC831980548BF01F5C8719A0648BF29
:1045180001F57A71D80648BF01F5FA615A0648BF15
:1045280001F57A614FF4806057E1B0F5E46F00F06F
:10453800A780B0F5006F53D0B0F5E26F7FF4E8AE16
:1045480084F81D32574B59689EE0574B1B789B07E0
:104558007FF512AF554B19884FF4F3634B43642131
:1045680039E184F81D322B6898077FF505AF504B69
:10457800197800293FF400AF474B4E4AD3F8203250
:10458800DB7B1BB1138893FBF1F300E013880A214E
:1045980059434FF4047056E084F81D322B6819050E
:1045A8007FF5EAAE444B19680A2391FBF3F114E155
:1045B80084F81D32414BDFF8E0901B685A077FF5FD
:1045C800DBAED9F814100AF0E9FA89F8B270D3E62C
:1045D80084F81D322B681B057FF5CEAE384B3FE0C3
:1045E800364A84F81D32126891067FF5C5AE2E4A08
:1045F800127892077FF5C0AE13F0010F314B11D03E
:104608005B6883EAE371002BA1EBE37101EB5101D5
:104618004FF01902B1FBF2F1ACBF41F0004141F09B
:1046280040410EE01B6883EAE371A1EBE371002BC4
:1046380001EB51014FF01902B1FBF2F1B8BF41F0A3
:1046480080414FF400600AF0A9FA84F8B27093E64A
:1046580084F81D32194B1B685B077FF58DAE1A4B2A
:104668001968BAE084F81D32184BB3F9041001EB4D
:1046780081014900E7E784F81D320A4B196803E015
:1046880084F81D32074B9968114A64234B431189FA
:1046980093FBF1F1D7E700BFA83500202C8C002050
:1046A800588C0020E88B0020C4710020008C00206A
:1046B800D84B0020DA4B0020F02100207069002040
:1046C800D44B002014220020E8210020028C002076
:1046D8001C69002084F81D328C4BDFF850921B684F
:1046E80013F0200A12D08A4B1A7812F0020F14BF66
:1046F8004FF47A71002112F0010F864A14BF4FF46B
:10470800FA6300230B44117819449CE72B681B06B5
:1047180005D551460AF042FA89F8B2A02CE6D9F834
:1047280020325B7C002B3FF427AE99F82522032A20
:1047380023D8DFE802F002091017774B18680378CE
:1047480090F801E0817813E0734B1868837A90F849
:104758000BE0017B0CE0704B1868037D90F815E0C6
:10476800817D05E06D4B1868437990F806E0C179C2
:10477800090401EB0E21194400E00021531CDBB2AF
:10478800042B01EB026114BF84F8253284F82572EA
:104798004FF4826057E784F81D325C4B1B6899061A
:1047A8007FF5EAAD5A4B1B789A077FF5E5AD5C4B70
:1047B8001B886421594310E084F81D322B689B073D
:1047C8007FF5DAAD574B197800293FF4D5AD564B34
:1047D8001A880A23534393FBF1F10AF0DFF9534B8C
:1047E80083F8B270C8E50AB184F81D3294F826320D
:1047F8004E4F002B00F00281D7F82832002B00F032
:10480800FD80019B1E68D7F82C32F31A632B40F207
:10481800F580DFF82C9141200AF076F94FF00A086C
:10482800B9F9020090FBF8F080B20AF064F9B9F91E
:10483800000090FBF8F080B20AF05DF9B9F90400C5
:1048480090FBF8F080B20AF056F90AF025F997F8CB
:10485800307217F001073DD02C4B1A6812F0200F68
:104868009A4600F0A0802A4BDFF8A8901B7813F036
:10487800020F08D099F80030052B34BF4FF002081A
:104888004FF0030801E04FF00108294F47200AF0D4
:104898003BF938680AF01EF978680AF01BF9254BCD
:1048A80064271888B0FBF7F0C0B20AF001F9DAF80B
:1048B800003013F0140F0BBF194B1F4B18881868E2
:1048C80008BF78430AF006F999F8000048EA800022
:1048D800C0B264E0194B1B88D90534D4DA060DD46C
:1048E80098060DD459060DD41A070DD4D80729D423
:1048F80013F0020F14BF0327012724E00D2722E03D
:10490800092720E004271EE008271CE07069002022
:10491800C4710020C5710020BC4A00201438002052
:104928001C220020D84B0020DA4B0020A83500209C
:1049380014220020008C002038380020588C0020D9
:10494800028C00200227BC4B93F80080BB4BDB781D
:10495800C8F380081BB148F002085FFA88F85320B2
:104968000AF0D2F8B64B188800EB800000EB800004
:10497800800080B20AF0BFF800200AF0BCF8B14B02
:104988001888FE23584340F2FF3390FBF3F0C0B27F
:104998000AF08EF800200AF08BF848EA87000AF03F
:1049A80087F80AF079F894F83072D7B9DFF8BC8242
:1049B8004F200AF0A9F8D8F800000AF08BF8D8F8C8
:1049C80004000AF087F838460AF084F801200AF053
:1049D8006FF89D4B187800F001000AF069F80AF0AA
:1049E8005BF894F83032C4F82C620133DBB20A2148
:1049F800B3FBF1F201FB123384F83032934E96F890
:104A08000090B9F1020FB24640F036810AF040FF3B
:104A18008F4B1F6840F6B833C71B9F4207D9002346
:104A28003370B4F832320133A4F832323AE1DFF8A5
:104A3800408298F804303A2B40F0FA8098F8021037
:104A4800404610F04DF9002840F0F2807C4B814E32
:104A58001B88F361804BD4F834B21B68F362636936
:104A6800F3637E4BF7661B68F364B4F83232F36580
:104A780058460AF04DFBDFF8F0A10746002840F041
:104A8800FB80494658460BF0C5F8042386F8743075
:104A980098F8033002939AF83832642B46D19AF882
:104AA8003932072B08BF8AF8397294F8398206EB35
:104AB800081671680391084616F032FDD6F808B05A
:104AC800674E5FFA80F9584616F02AFD5FFA80FAB9
:104AD80009EB0A030833F37128F00F03B37208F0E7
:104AE8000F0373730AEBC903B3734A46039906F1BC
:104AF8000F0019F0DFFC06EB0900524659460F304B
:104B080019F0D8FC16F8079F4946304610F0CCF843
:104B180006F80900029814F04FFD08F10108002377
:104B280084F8383284F839824D4E68E096F87580FA
:104B38004B4BDFF830E118F00F0F04BF08F1010804
:104B48005FFA88F8B8F1070F4FF0000203F10D0182
:104B580028BF4FF001089A729B468A464FEA08130D
:104B680006EB030C481C9CF81020DCF80CC043EA48
:104B78000209724481F8009092F82A10012900F184
:104B8800010207D9013902F801CC10464FEA1C2C62
:104B9800C9B2F3E7334408F101085B7C2CF0600CE0
:104BA8005FFA88F84CEA030CB8F1080F114680F850
:104BB80000C00CD0274B2B4803EB08131B7C034485
:104BC80093F82A00CAEB02030344132BC6DDCAEB91
:104BD800020A0AF1060A5FFA8AFADFF898904AF0A0
:104BE80040038BF807305146484610F05DF809F845
:104BF8000A00029886F8758014F0DEFC94E7B37812
:104C080007F10108FFB2BB4206D9F15DD4F83402BE
:104C180015F03CFB4746F2E70E4B032283F874205D
:104C280094F83832013384F83832084B1A7023E08C
:104C380000238AF8003035E02C8C0020B450002086
:104C4800DA4B0020EC210020C47100204F500020D6
:104C580088500020AC0D0020F0210020D44B00200B
:104C6800888B00201C0F0208A83500206422002031
:104C78007C5000208F8B00208C4E96F87430032BCC
:104C880010D1D4F834020AF0C8FF58B1884B01217A
:104C9800D3F834020AF0BEFF022386F87430854B3D
:104CA80000221A7094F83A32002B00F00483824BE9
:104CB8001B68002B00F0FF820AF0EAFD7C4BD3F85A
:104CC8003C3244F61F62C31A9342064640F2F3820E
:104CD800022009F0B5FE002863D0784B2D681B68C8
:104CE80049F6074213F0080F48F6034718BF17465E
:104CF800590744BF47F4005747F008079A0644BFCE
:104D080047F4804747F0200715F00205C7F3090864
:104D18000ED06B4B1D886B4B05EB8505B3F90090E6
:104D28000CF046FD05EB8505AD00ADB240B202E0E2
:104D38004FF0FF3964200023ADF81C30ADF8223065
:104D4800ADF82430ADF82630ADF82830ADF82A306B
:104D5800ADF82C305C4B04970597CDF81880ADF86A
:104D68001E50ADF820908DF82E0004AA0AAF154603
:104D780003CDBD42186059602A4603F10803F6D1F5
:104D880028681860A988AA799A7199804F4B0122DE
:104D98007C211F20DA7114F0B5FB14F09BFB14F092
:104DA80085FB032009F04CFE002862D0019BD3F854
:104DB8000090474B1B78002B00F0F382454A012BEB
:104DC800158840F2EF82022B578800F0EC82032B03
:104DD800B2F804E000F0E982042BD08800F0E68203
:104DE800052BB2F808C000F0E382062BB2F80A805F
:104DF80000F0E082072B918914BFD2890022364B3C
:104E0800ADF822201B88ADF816700022C3EB0323EF
:104E180040F2FF3A93FBFAF38DF825302A4B8DF8D0
:104E28002420CDF81090ADF81450ADF818E0ADF886
:104E38001A00ADF81CC0ADF81E80ADF8201004AA09
:104E480008AF154603CDBD42186059602A4603F1E4
:104E58000803F6D128681860AA889A801B4B232279
:104E6800F4211620DA7114F04DFB14F033FB14F022
:104E78001DFB062009F0E4FD002800F0E5800F4B3B
:104E88001A6812F0200F994600F0DE80134BDFF805
:104E980050A01B7813F0020F24D09AF80030052B8D
:104EA80034BF4FF002084FF003081DE0AC0D00209E
:104EB800A83500204F500020448A00207069002047
:104EC800DA4B0020F0210020508A0020488A002078
:104ED8009C50002060870020EC210020C471002035
:104EE800C57100204FF00108A04FA14D0AF0D0FC79
:104EF8003B8829689AF800A004904FF47A7E0EFB4C
:104F080003F29C4B0892B3F800C09B4B06911B8898
:104F18006968ADF828C04FF6FF7203EB8303ADF85C
:104F28002420ADF82620954A8DF82DA05B0000209E
:104F38000DF1100EBB46AA4605900791ADF82A3030
:104F48008DF82C800DF1280C77461546734603CB57
:104F58006345106051609E4602F10802F6D1186858
:104F680010609B88DFF82882938018211E2088F81B
:104F7800071014F0C7FA14F0ADFA14F097FA0AF013
:104F880087FCBBF80030DAF80020DAF80410059244
:104F98004FF47A7E0EFB03FED9F80030CDF81CE002
:104FA80013F0140F18BF764B049018BF1B680691B6
:104FB8001CBF4FF00A0C0CFB03FC724B08BFF446F5
:104FC8000022B3F90430CDF820C04FF00A0993FB52
:104FD800F9F3ADF82A30694BADF82420ADF8262056
:104FE800ADF82820BE460DF1280C724603CA62456A
:104FF80018605960964603F10803F6D110681860E6
:10500800682121231C2088F8073014F07BFA14F05B
:1050180061FA14F04BFA5C4B5A681B68049300233E
:10502800059206933B4603CBC8F8080018686960E8
:1050380031232721A8600C2088F8073014F062FA81
:1050480014F048FA14F032FA0A2009F0F9FC0028A2
:1050580049D04C4A019B9FED4D6A1968B2F900305E
:10506800049107EE903AB2F90230F8EEE77AF2EEE0
:10507800045A5B42C7EEA56A04AD0AAF07EE903A40
:10508800B2F9043005EE103AF8EEE77AB8EEC55AF0
:1050980087EEA57A0023089309930A93374BC5EE48
:1050A800257A66EE866A27EE067A67EE867ACDED71
:1050B800056A8DED067ACDED077A2A4603CABA420B
:1050C80018605960154603F10803F6D11068186096
:1050D8002F4B1E2227211C20DA7114F013FA14F02A
:1050E800F9F914F0E3F90B2009F0AAFC002800F004
:1050F800E080284B9FED287A1B6813F020021FBF21
:105108001C49DFED266A098807EE901A16BFF8EEEB
:10511800E77AB0EE476A87EEA66A13F0140F09D053
:10512800174BD3ED006ADFED1D5AF8EEE66AC6EEBE
:10513800A57A09E032B10D4B1B8807EE903AF8EEDC
:10514800677A01E0DFED147A0E4B0A22B3F90430D6
:1051580093FBF2F2124BB3F90630B3F57A7F21DBF9
:10516800B3F5FA6FA8BF4FF4FA631DE01C220020C4
:1051780014220020008C0020088C0020508A002077
:1051880038380020028C00206422002035FA8E3C3A
:10519800488A002070690020000000000000C84212
:1051A800608700204FF47A73ADF82020A3F57A7356
:1051B800642253434FF47A7293FBF2F3ADF8223032
:1051C800B04B8DED047A04AA8DED056ACDED067A13
:1051D8008DED077A0DF1200C17461D469646BEE860
:1051E8000300E64518605960724603F10803F5D1DB
:1051F800DEF80000DFF8BC82186014214A23084654
:1052080088F8073014F07EF914F064F914F04EF9B8
:105218009D4B1A789D4B5B79013BDBB202F004028F
:1052280002F0FF00002A0CBF4022C022172B9BBFB0
:1052380097495B184FF0000C93F834C0954B1988C8
:105248008B071ABF002342F01002012311F4027FDA
:1052580018BF022311F0100F18BF062311F0200FFA
:10526800C64618BF102330B18B49C978002914BF2E
:105278000521042100E003218DF814C08DF81620C3
:105288004FF0000C03228DF815C08DF818200493F8
:105298008DF817103B4603CB2A72286069600920F5
:1052A80032218EF807C014F02DF914F013F914F018
:1052B800FDF8C4F83C6294F84032002B00F0DC8022
:1052C800764D734ED4F844020AF0B3FC002800F07F
:1052D800D380D5F844020AF0A6FC95F84832074670
:1052E8001BB1013B85F84832ECE76D490322481EA3
:1052F8001BF0EFFB95F8493295F84A2285F84C7275
:1053080083F47F4383F0FF039B1A9BB2BFB2B7EBD2
:10531800132FD7D195F84B12DBB28B42D2D14CE088
:1053280098F802302BB1C6F8907088F80290FEF712
:1053380023BED6F89030FB1AB3F57A6FFEF41CAE94
:105348000123D6F8940088F802300AF06CFC8046F5
:10535800D6F894000AF067FC18F07F0F7EF40CAEC4
:105368008A2803D08E280ED0FEF706BE4D4B1B6848
:1053780099067EF501AE96F88C30002B7EF4FCADD4
:1053880006F1600306E096F88C30002B7EF4F4AD4D
:1053980006F12C03C6F898302D2386F89C30FEF7CA
:1053A800EBBD1D4600274FF0000E00204FF0000C0B
:1053B8004FF0000800210A4621E595F84D3202F029
:1053C8000F0013B908B185F84D0294F84D32984290
:1053D800FFF478AFC31AD9B202293FF673AF02F0CF
:1053E800F002802A08D1042360F07F008DF8103085
:1053F8008DF81100022111E0902A13D133440622BE
:1054080093F84C308DF8123060F06F0002238DF85D
:1054180010208DF811008DF81330042104A809F02C
:10542800F9FB4FE7A02A7FF44DAF334493F84C3093
:10543800022B1CD0032B0BD0012B7FF443AFA9699F
:105448000A23053191FBF3F101F5C87189B210E027
:10545800154B1988D5F8503201EB81019B7C490026
:1054680089B233B1114B1B7891FBF3F101E0104B7A
:10547800D98809F0FFFB25E70DB0BDEC028BBDE82C
:10548800F08F00BF508A00202C8C0020A8720020CA
:105498001C0F0208588C0020B4500020A8350020AA
:1054A800F237002070690020DA4B0020D84B00202A
:1054B8000A380020488A00202DE9F04FBC4BBD4A2D
:1054C8001B682DED0C8B9B6A1380BB4A1178012950
:1054D80001BF5380B94B1B889380937A9DB0934644
:1054E800002B00F0ED850AF0D3F9B54B9B68054613
:1054F8000BB1B4489847B44BB44E1B68059313F0EE
:10550800080F3CD0BBF8121001F10E039BB21C2B04
:10551800AF4BB3F904302DD8AE4A1288520729D5BB
:105528000A2293FBF2F2A44BDB8AD21A92B213B28C
:1055380013F1B30FBCBF02F5B47213B2A64AB32B72
:105548001278C4BFA3F5B4731BB2170717D596F921
:10555800F021524212FB03F2A04B1B681B7A12B2D5
:1055680013FB02F26FF01D0392FBF3F30B44ABF84D
:10557800123004E00A2293FBF2F3ABF81630984B92
:10558800B3F90640DBF818305A8994420CDB197AD3
:10559800B4F5FA6FBFBFA31A4B43C2F5FA6193FB88
:1055A800F1F1C1F1640100E0642196F9F031B6F837
:1055B8007A0296F840A296F841C25B429BB20693E3
:1055C800884B0022A3F10E0E864BD154844B33F93D
:1055D8001260331A03F2F31940F2E638C1454FEA74
:1055E800420710D883EAE378022AA8EBE3780ED0C2
:1055F800D04502DDCAEB080300E00023864227F805
:105608000E3012DB16E0022A4FF4FA78F2D1E045A8
:10561800C8BFCCEB0803BDF81880D8BF002313FB24
:1056280008F38642ABF8123007DA37F80E305B42DF
:1056380027F80E300132032AC6D16B4B634F1E6820
:1056480016F480560ED0B4F57A7F06DBB4F5FA6FFF
:105658002246A8BF4FF4FA6201E04FF47A72A2F52D
:105668007A7213E0B7F87C128C4206DBB4F5FA6F55
:105678002246A8BF4FF4FA6200E00A46521A4FF4D5
:105688007A735A43C1F5FA61B2FBF1F26423DFF889
:1056980068C192FBF3F101F101083CF911E03CF912
:1056A80018C06FF06308CEEB0C0C08FB012101FB5E
:1056B8000CF292FBF3F202EB0E039BB2ABF8143040
:1056C800B6B14A4A1268D60012D5494AD2787AB990
:1056D800A3F57A731BB24FF47A721B0393FBF2F3B0
:1056E800C0F5FA6212B2534300EB2330324B988272
:1056F800384BB3F800A01AF0400F98463BD0344B13
:10570800DFED3C7AB3F904300A2293FBF2F3BBF8DD
:1057180020209B1A1BB208EE103AB8EEC88A28EE71
:10572800278AB0EE480A08F036FDF0EE408AB0EE5F
:10573800480A15F013FCBBF9103007EE103ABBF914
:105748000E30B8EEC77A06EE903A67EE407AF8EE79
:10575800E66AE8EEA67A20EE260AFDEEE77AA8EEDB
:10576800870A17EE903AFDEEC07AABF80E3017EEC6
:10577800903AABF81030059B0F4E13F0140F00F061
:1057880099801AF4027F00F09580134B1B7803F080
:10579800100303F0FF018BB3BBF8103097F9C62252
:1057A800BBF9241001FB0233ABF8103082E000BFD4
:1057B800784C002092500020FC370020C44A00207A
:1057C800286900200838002070690020A87200208D
:1057D800028C0020588C0020C4710020BC4A002094
:1057E8006087002018380020A8500020C0710020D1
:1057F800B450002035FA8E3C608C0020DBF828304D
:10580800BBF92C0093F803C09A78BCF1000F29D09B
:10581800C0EB040E8EEAEE73A3EBEE7393420BDD3E
:1058280084424FF001033163C8BF5242B18A86F8FF
:10583800343093B20B4413E096F834301BB1F36B59
:10584800B36386F83410DBF84010DBF824200B88AB
:10585800498802449A4203DB91420B46A8BF13468B
:10586800B38227E0231A83EAE371A1EBE371914243
:1058780009DD022293FBF2F37364012386F84830B2
:1058880086F8343008E096F834302BB1F16BB16308
:1058980086F848C086F834C0DBF84010DBF82430BE
:1058A8000A8849880344934203DB99420A46A8BF01
:1058B8001A46B282694B1A789946B2B1B7F87C3267
:1058C800A34212DB664B5B79012B01D0192B02D165
:1058D80097F8FA204AB90E2B07D0082B1FBF0023D0
:1058E800ABF812300023CBF8543097F82C429CB315
:1058F8001AF0030F30D05B4BDFED5B7A93ED080AAB
:10590800B4EEE70AF1EE10FA20D919F055F8DBEDFC
:10591800167A20EE270A18F0BDFFB0F5617FA8BF00
:105928004FF4617007EE900AB8EEE77ADFED4F7A30
:1059380087EE270A15F012FB07EE904AF8EEE77A91
:1059480027EE800A18F0A6FF00B200E00020BBF89E
:1059580014301844ABF8140097F8803223B9B8F81B
:105968000020002A00F08E809BF85C10404A002935
:1059780051D0022B09D0032B19D197F88132C3EBF0
:10598800431203EB8203DB000FE03A4BD3F8F82015
:10599800B2F57A7F05DB44F620639342A8BF13462D
:1059A80001E04FF47A7303F57A739BB201E0324B4E
:1059B8005B88324A9BF800101068B3FBF0F0441C77
:1059C80024B209292A4AABF85E4004D1D189518012
:1059D800118A91801381B6F960C00023244901F12E
:1059E8000E0201F1620E32F913703EF9132001F133
:1059F8006A0602FB0CF292FBF4F836F8132026F83C
:105A08001370BA1A42442EF813200133042BE5D13F
:105A1800A1F8600004E0B2F86030013BA2F8603001
:105A2800BBF96040124A002C4FF0000313DDB2F9B5
:105A38005E606232124F32F9131007F15C00614365
:105A480030F8130091FBF6F1411A27F813100133CF
:105A5800042BEFD11DE0A2F860301AE0240E0020DC
:105A6800A8720020BC8B00208FC2753CEFB6B044F2
:105A7800FC370020DC1900209C5000204C720020CC
:105A88000A3800209BF85C30ABF86020002B00F04F
:105A98009280BC4B93F8823223B1BB4A12689100C2
:105AA80001F12D85B94ADBF818109BF80070DFED7D
:105AB800B84A9FEDB84ADFEDB83A9FEDB83ADFED46
:105AC800B82AB7EE005A0E1D02F12C040023A2F1E9
