:020000040800F2
:1000000000A000206DCB0108D5CB0108E9BB010899
:10001000D5CB0108D5CB0108D5CB010800000000E5
:10002000000000000000000000000000D5CB010827
:10003000D5CB010800000000D5CB01081332010820
:10004000D5CB0108D5CB0108D5CB0108D5CB01080C
:10005000D5CB0108D5CB0108277201083172010800
:100060002F7201082D7201082B72010859960008A1
:100070004996000839960008299600081996000844
:1000800005960008F1950008D5CB0108D5CB0108ED
:10009000D5CB0108D5CB0108D5CB010829720108C1
:1000A000012F01083D2F0108F12E0108612F0108E1
:1000B000312F0108212F0108112F0108D5CB01088C
:1000C000D5CB0108D5CB0108D5CB0108D5CB01088C
:1000D000D5CB01082D95000821950008159500083D
:1000E00025720108D5CB0108D5CB0108D5CB010875
:1000F000D5CB0108D5CB0108D5CB0108D5CB01085C
:10010000000000000000000000000000D5CB010846
:10011000D5CB0108D5CB0108D5CB0108D5CB01083B
:10012000DD950008C9950008B5950008A19500085F
:100130008D950008D5CB01080000000000000000EC
:10014000D5CB0108D5CB0108D5CB010800000000B4
:10015000000000000000000000000000000000009F
:100160000000000000000000D5CB0108D5CB01083D
:10017000D5CB0108000000000000000000000000D6
:0801800000000000D5CB0108CE
:100188002DE9F04F1646B0F908200A81D3B25A2B50
:100198008BB005460C4600F0788700F2DC80362BE1
:1001A80000F05F865CD8242B00F08A8526D8042BC3
:1001B80000F0F28116D8022B00F0B68100F2DE8141
:1001C800012B40F0EE860A68511C21600021117055
:1001D8002268511C2160137023685A1C2260162261
:1001E80000F0D2BF0A2B00F05482222B00F0FB83D0
:1001F800052B40F0D6860023D14DDAE12C2B00F0F8
:10020800798517D8282B00F05E852A2B00F06F859A
:10021800262B40F0C686CB4D2046B5F8E4110FF0EA
:1002280002FBB5F8E81120460FF0FDFAB5F8EC111D
:1002380000F093BF302B00F03D8607D82E2B40F0FE
:10024800B086C04D05F1400600F01EBE322B00F00E
:10025800D085342B40F0A586BA4B03F15A01E8E368
:10026800452B00F0CA8630D83D2B00F04A831FD8B2
:100278003A2B00F0F6823B2B00F0B083382B40F08D
:1002880090862268AF4B501C93F82E122060117094
:10029800226893F83212501C20601170226893F87B
:1002A8003112501C2060117093F8332200F069BF9E
:1002B800422B00F0AF85442B00F06987402B40F0BB
:1002C800708600239F4D00F098BD4D2B00F02781CC
:1002D8001ED8492B00F020834B2B00F05085462B6D
:1002E80040F05F8608F076FF2368974D5A1C40F06F
:1002F800020022601870298820460FF080FAE96809
:1003080020460FF07CFA08F045FF014600F084BE55
:10031800502B00F0318616D84F2B40F042860B68E0
:1003280000255A1C0A601D700B685A1C0A601D7053
:100338000B685A1C0A60204629461D700FF05FFAA8
:10034800294600F069BE522B00F05286542B00F06B
:100358004F8600F026BE722B00F0CA8300F28C8014
:10036800682B00F047826CD8642B00F0408137D8A6
:100378005E2B00F0B286602B00F0F4865C2B40F018
:100388001086704E0B6896F8F821704D591C216044
:100398001A702B682046198C0FF045FA2B682046F6
:1003A800598C0FF040FAB6F8FA1120460FF03BFAD4
:1003B800B6F8FC1120460FF036FA2B682046998CC7
:1003C8000FF031FA2B682046D98C0FF02CFAB6F8CA
:1003D800FE1120460FF027FAB6F8001200F0BDBE55
:1003E800662B00F0678100F28F81594B20461988EF
:1003F8000FF019FA574B1988204689B20FF013FAF3
:10040800554B1B68C3F3C001C3F38002890041EA5E
:100418004201C3F340021143C3F3401241EAC2014F
:1004280003F01003194320460FF0FDF91BF086FC7A
:10043800014620460FF0E3F9424B93F85C2500F0A3
:10044800A0BE6C2B00F0F78108D86A2B00F0C4839B
:1004580000F2E5830025414E414FE1E16E2B00F0AB
:100468002B82C0F0F7816F2B00F05A82702B40F07E
:100478009885002335498DE27E2B00F0F6851AD841
:10048800772B44D009D8742B00F0FC82C0F09A83F3
:10049800752B40F08685334A96E27C2B00F0C185A7
:1004A80000F2CD85782B40F07C85264D00262F461E
:1004B8004FF00E0837E1A42B00F0C2830DD8962B1D
:1004C80000F0A880A02B00F0EE837F2B40F0698518
:1004D800002306251B4F00F011BDF12B00F05881B9
:1004E8000CD8F02B40F05D85164D2046B5F810125B
:1004F8000FF099F9B5F80E1200F02FBEF52B00F0A9
:100508004B86FE2B40F04D850025174EC1E317485A
:10051800174E002200F110074FF00C0EE0E2154DC7
:100528000E4F002600F04BBC134D00232268595D86
:100538000133501C042B20601170F7D101F07ABDF3
:10054800EA21020804650020D00F0020B4350020FD
:10055800F4620020F8620020745800205C38002003
:10056800144D00203FF501084E1C002058130020B0
:1005780040F501088E670020E02102080B685A1C2C
:100588000A6003221A700B685A1C0A6001221A704A
:100598000B689A1800F02EBDB34D00232268595DF0
:1005A8000133501C042B20601170F7D1002100F09A
:1005B800D4BD2268595D0133501C0B2B206011708B
:1005C800F7D1AA4D00232268595D0133501C082B2E
:1005D80020601170F7D1A64D00232268595D0133C0
:1005E800501C072B20601170F7D101F023BD0B6858
:1005F8005A1C0A60E7221A709E4B5A790B68591CDC
:1006080021601A7023685A1C226000221A70042183
:1006180000F002BD984B204619880FF004F9974B5B
:100628001988204689B20FF0FEF8954B1B68C3F372
:10063800C001C3F38002890041EA4201C3F34002CA
:100648001143C3F3401241EAC20103F010031943F6
:1006580020460FF0E8F81BF071FB014620460FF02A
:10066800CEF8844B93F85C252368591C21601A70D6
:10067800844B19886429A8BF642120460FF0D3F859
:1006880023685A1C226003221A707F4B1A7800F0E4
:1006980078BD7E481BF0E4FB76490023984241F37D
:1006A800C9845A18013392F814562268561C2660D9
:1006B8001570F3E7764B774F1B89B3F5007F94BF2E
:1006C80001260426002557F8251091FBF6F120464F
:1006D80089B201350FF0A7F8032DF4D16E4E00252D
:1006E80036F82510204601350FF09DF8032DF7D177
:1006F8006A4E002536F82510204601350FF093F88C
:10070800032DF7D101F096BC654B0A6803F110017F
:1007180053F8040B42F8040B8B42F9D123681033C9
:10072800236001F087BCB5F8701120460FF07BF804
:10073800B5F8721120460FF076F8B5F87411204616
:100748000FF071F8236895F87621591C21601A700A
:10075800236895F87721591C21601A70236895F849
:100768007821591C21601A70236895F87921591C41
:1007780021601A7008FB06732046D3F87A110136F7
:100788000FF03DF8082E05F10E05CCD101F052BC52
:10079800384B03F17001226893F80001551C25605D
:1007A8001070226893F80101551C256010702268AA
:1007B80093F80201551C25601070226893F8030114
:1007C800551C25601070226893F80401551C25609B
:1007D8001070226893F80501551C25601070226876
:1007E80093F806010733551C8B4225601070D2D14F
:1007F80001F020BC2B4FDFF8BC800025182606FB33
:100808000573197C21B138F8150015F045FA014631
:10081800204601350FF007F8082DF0D101F00ABC89
:1008280033789D4281F2068437F8151020460EF081
:10083800FAFF0135F4E71C4D204629880EF0F3FF36
:10084800698820460EF0EFFFB5F904300A2193FBC2
:10085800F1F153E0154B204619680EF0D0FF144B08
:10086800DBE1134B5968D7E3E5210208F6210208BA
:10087800FF21020804650020F4620020F8620020CD
:100888007458002074340020FA620020186B00208D
:1008980064580020346300205C630020406300201B
:1008A800EA250020046000204E630020881C0020F8
:1008B8005813002066420020BA4B0A681B88BA4DBC
:1008C800FF2BA8BFFF23511C21601370B74B196879
:1008D80081F3100189B220460EF0A5FF2989204630
:1008E8000EF0A1FFB24BE96893F83B3223B10A231B
:1008F800594381F3100101E001F30F0189B200F0BF
:100908002CBC2268AA4B501C93F8C31220601170AB
:1009180093F8C22200F035BCA64B998A00F01DBCA2
:10092800A54B1A6811782268501C206011701A684B
:1009380091782268501C20601170002219689E4D21
:100948001144013248792168032A01F10106266021
:100958000870F3D12B681A7A2368591C21601A7021
:100968002B68DA782368591C21601A702B681A7969
:100978002368591C21601A702B68204659890EF08B
:1009880052FF2B685A7A2368591C21601A702B6809
:100998005A78F6E30A68D05C2268551C2560107006
:1009A8000A681A44907A2268551C256010700A68F3
:1009B8001A440133107D22680A2B02F101052560D3
:1009C8001070E7D101F036BB12F8013F002B01F09F
:1009D80031832168481C20600B70F5E70B685A1CAE
:1009E8000A600122D0E3724B744E03F150010C27C8
:1009F80093F85D2507FB0262043392F838002268F9
:100A0800551C25601070226893F85A05551C2560FE
:100A18001070226893F85B05551C256010702268D9
:100A280093F85C05551C994225601070E0D101F0DF
:100A380001BB226893F8B205551C25601070226826
:100A480093F8AD05551C25601070226893F8AE0523
:100A5800551C25601070226893F8AF05551C256059
:100A68001070226893F8B005551C25601070226834
:100A780093F8B1050633551C8B4225601070D8D108
:100A880001F0D8BA484FDFF834A1012607F1100861
:100A98004FF00C09002597F82E309D420EDA15F814
:100AA8000810002209FB02F34548185C884200F050
:100AB800FC8301321F2AF5D10135ECE7002E01F045
:100AC800B9820026E6E70EFB01F3DFF8F4C013F85D
:100AD8000CC0AC4500F0018401311F29F3D101326B
:100AE80090F82E309A4281F2A582D55D0021EAE77E
:100AF8002F4D2046B5F87A120EF095FEB5F8CC10B9
:100B080020460EF090FEB5F8CE1020460EF08BFE73
:100B1800B5F8D01020460EF086FEB5F8CA12204669
:100B28000EF081FE236895F85022591C21601A7036
:100B380023685A1C226000221A70236895F8511203
:100B4800581C20601970236895F83B12581C2060C7
:100B58001970236895F87712581C2060197023685B
:100B6800591C21601A70B5F90C320A21204693FBF2
:100B7800F1F189B20EF057FE236895F82E22591C20
:100B880021601A70236895F83222591C21601A7066
:100B9800236895F83122591C21601A7095F8332280
:100BA800EFE200BFBA34002058130020B43400200C
:100BB8000465002068510020641C002040F50108ED
:100BC80070F5010801232268511C2160137001335C
:100BD800092BF8D101F02EBABC4B0A681B78BC4D22
:100BE800511C03F0020321601370BA4B1A78236872
:100BF800591C21601A70296B20460EF000FE696BA3
:100C080020460EF0FCFD298F20460EF00CFEB24B5C
:100C1800204619880EF007FEB04B19889DE2AC4DAE
:100C28002046698F0EF0FFFDA98F20460EF0FBFDD0
:100C3800226895F83E30511C03F00103216031E32E
:100C48002368A34A581C92F83F10206002F140051F
:100C58001970002392F83F108B4281F2EB812168D2
:100C6800585D4E1C2660087020689D49471C5E5CD4
:100C78002760067001F1100020311E5C2068471CB7
:100C880027600670585C21684E1C26600133087086
:100C9800E0E736F81510204601350EF0C4FD042DA6
:100CA800F7D101F0C7B98F4B204619680EF0A7FDA0
:100CB8008D4B204619680EF0A2FD8C4B1968ABE1EC
:100CC8008B4B9968A8E18A4D2046B5F836120EF08C
:100CD800AAFDB5F8381220460EF0A5FD236895F850
:100CE8003A22591C21601A70B5F83C1235E2804B43
:100CF8005A7946E27E4D0B6895F86C22591C2160A2
:100D08001A70B5F87E1220460EF08DFDB5F87A12ED
:100D180020460EF088FDB5F87C1220460EF083FDC3
:100D2800236895F87522591C21601A70B5F8861247
:100D380020460EF078FDB5F8881220460EF073FDB7
:100D4800236895F88022591C21601A70236895F849
:100D58008122591C21601A70B5F8841220460EF0C1
:100D680062FD236895F86E22591C21601A70D5F827
:100D7800701220460EF043FD95F8742201E20B68CC
:100D88005B4D591C95F8C82221601A70236895F8A4
:100D9800C922591C21601A70B5F8CA1220460EF0F3
:100DA80042FD236895F8CC22591C21601A70B5F8C9
:100DB800CE1220460EF037FD95F8D022E1E13B78BF
:100DC8009E4205F1020581F23581236815F8022C4F
:100DD800591C21601A7015F8011C01EB810101EB07
:100DE800810101F2EE2189B220460EF01CFD013688
:100DF800E5E73F4B93F87722C3E15A19013392F89C
:100E080064122268082B02F1010020601170F4D1ED
:100E180001F010B9364D0B686A79591C21601A70B7
:100E2800A96820460EF0EBFC236895F86C22591C43
:100E380021601A70B5F8E41120460EF0F4FCB5F8FC
:100E4800E81120460EF0EFFCB5F8EC1120460EF044
:100E5800EAFCB5F8361220460EF0E5FCB5F8381273
:100E68007BE1234D234F05F1280695F9D422002371
:100E7800D957914200F03A820C333C2BF8D108350F
:100E8800B542F2D101F0D6B8B5F8A41320460EF059
:100E9800CAFC236895F8A623591C21601A70236898
:100EA80095F8A7230435591CAE4221601A70EBD17E
:100EB80001F0C0B8104D05F1800655F8041F204612
:100EC8000EF09DFCAE42F8D101F0B4B8D841002034
:100ED80058130020D94100204C630020546300209F
:100EE800A8130020ACF7FF1FB0F7FF1FB4F7FF1FD0
:100EF80004650020346B00202468002005FB03F003
:100F0800002221684E1C26600B7021684E1C26604A
:100F18000A7011183944013291F8E4632168062AED
:100F280001F1010EC4F800E00E70BB4EE9D10133A7
:100F3800062BE3D100222168481C20600B70216831
:100F4800481C20600A70B118013291F80804216821
:100F58000B2A01F1010525600870ECD123685A1CA1
:100F6800226007221A7023685A1C226000221A7015
:100F7800A94B93F8142404E10B685A1C0A60012257
:100F88001A702268A44B501C93F80916206011703F
:100F9800226893F80716501C2060117093F80826F1
:100FA800EFE0762B2A6840F05581531C2B601378AC
:100FB800002B40F0BD81994AD2F88010D2F88450B5
:100FC8002268501C2060137020460EF018FC294639
:100FD80020460EF014FC924B204619680EF00FFCC8
:100FE800002120460EF01FFC002120460EF01BFCBD
:100FF80023685A1C22600022C6E08A4D002322681A
:10100800595D0133501C0B2B20601170F7D1002162
:1010180020460EF0F4FB002120460EF0F0FB01F014
:1010280009B87D4D2046B5F8E6100EF0FCFBB5F882
:10103800E81020460EF0F7FBB5F8EA108DE02268BC
:10104800754B501C93F8401220601170226893F879
:101058004112501C20601170226893F84212501CF3
:1010680020601170B3F8EC1077E022686A4B501CCE
:1010780093F8E11120601170226893F8E211501C76
:101088002060117093F8E3217BE0634B2268B3F88A
:10109800F41141B1511C2160082111702268511CC2
:1010A8002160012109E093F8F611501C20601170AD
:1010B800226893F80612501C20601170226893F879
:1010C800D710501C20601170226893F8D610501C5D
:1010D80020601170B3F8D4103FE0534D2B682046C0
:1010E800198D0EF0A0FB2B682046598D0EF09BFB46
:1010F8002B682046998D0EF096FB23685A1C2260B7
:1011080000221A702B6893F835102368581C206049
:1011180019702B6893F838102368581C20601970D0
:101128002B6893F839102368581C206019702368BD
:10113800591C21601A702368591C21601A702B6889
:1011480093F837202368591C21601A702B682046B1
:10115800998F0EF068FB2B68598F20460EF063FBC1
:1011680000F068BF22682C4B501C93F8F1112060E6
:101178001170226893F80A12501C2060117093F8BD
:1011880009222368591C21601A7000F053BF002EF1
:1011980000F05087254B5AE00027254DDFF898804E
:1011A80015F018FF3946302222482F701EF014F926
:1011B8008DF804701F4F9DF804300B2B3ED89DF816
:1011C800043003EB430308EBC3031B7CE3B19DF836
:1011D800043003EB430308EBC3035B69A3B19DF839
:1011E800043003EB430308EBC303202158692B7831
:1011F80047F8230015F0ECFF2B7857F8230015F07B
:1012080080FF2B7801332B709DF804300133DBB25B
:101218008DF80430CFE700BF046500205813002084
:10122800841C0020EA210208B435002029BD0108E9
:10123800D1410020445F00200460002023682A7800
:10124800591C21601A70002E00F0F486CD4B3360D3
:1012580000F0F0BE6E68472BA6EB020673D05D2B3C
:1012680000F0BD8340F2B880D22B00F0488100F234
:101278001F81CC2B00F01F8240F20281CF2B00F09F
:10128800668200F20E81CD2B00F03484CE2B40F024
:101298007481BD4B1B78580700F1CC86BB4A137884
:1012A80043F00403137000F0C5BE5344D3F834B0C0
:1012B80058461AF0D5FD002E7FF4FEAB5B46CBEB0B
:1012C80003028242BFF6F8AB226813F8011B02F151
:1012D800010EC4F800E01170F1E7334493F83810B8
:1012E80023685D1C25601970FFF7F9BB2368591C3A
:1012F80021601A70B5F8D61220460EF094FA2368C9
:1013080095F8D822591C21601A70236895F8D922BB
:10131800591C21601A70236895F8DB22591C21603A
:101328001A70236895F8DA22591C21601A70A6E50C
:10133800102B09BF964A0025D2F88810D2F88C5095
:1013480018BF29463CE628460EF038FA052E07460F
:1013580005D928460EF048FA0026054601E0012680
:10136800802594E80C009B1A103B8A4AAB42A84699
:10137800B8BF9DB2D368DB1B9D423946204688BF63
:101388009DB291460EF03BFA3EB9294620460EF032
:101398004AFA23685A1C22601E70D9F80C30D4F817
:1013A80000A07A199A4288BFDD1B07F0EBFF2A4696
:1013B8005146384608F042F8236803442360002E5B
:1013C80000F038860022804540F334862368591C93
:1013D800216001301A70F6E7372B00F0728527D8A4
:1013E8002B2B00F07D8411D8252B00F02E8406D8F5
:1013F8000B2B00F0E485232B00F0A880BDE0272B01
:1014080000F02D84292B00F05484B6E0312B00F035
:10141800B28506D82D2B00F069842F2B00F0938518
:10142800ABE0332B00F0FD84352B00F01481A4E0F1
:10143800482B00F08C8311D83E2B00F0E18006D8B1
:10144800392B00F01D843C2B00F0F48595E0412BEE
:1014580000F0EE84432B00F007858EE04E2B00F061
:10146800B98406D84A2B00F0D9804C2B00F08F8421
:1014780083E0512B00F053835B2B00F08F827CE0DC
:10148800C82B5DD006D85F2B00F0E682612B00F0F8
:10149800168372E0C92B00F05D83CA2B00F0C3806D
:1014A8006BE0D02B00F01E83D12B00F08B8364E01F
:1014B800DB2B00F05C8210D8D62B00F0A48105D875
:1014C800D32B36D0D42B00F0AC8156E0D92B00F0CA
:1014D8002582DA2B00F038824FE0EF2B00F0838072
:1014E80006D8DC2B00F04882DD2B00F0588544E05C
:1014F800F22B00F0DD81FA2B00F007833DE0531C4E
:101508002B60107802060BD41F4B1B785B0700F189
:101518009185032828BF002012F0C2FB00F08ABD85
:1015280000F07F00032828BF002012F09BFB00F08A
:1015380081BD28460EF058F9174B188000F07ABD87
:10154800C6F34706122E18D8002729E0531C2B6033
:101558001178132911D8931C2B60104E50780C2742
:10156800002207FB02F306EB030E9EF808E086450F
:1015780000F03B8501321F2AF3D14FF0FF3000F015
:101588005ABD00BF41BD010878630020D841002042
:1015980058130020D00F0020621C002070F50108AD
:1015A800B742314607DA28460EF01EF901AB23F898
:1015B80017000137F4E7B84A00239E4206D001A875
:1015C80030F8130022F813000133F6E7B24B00227B
:1015D800122903D023F811200131F9E7AF4B01207C
:1015E800187000F028BD28460EF0FEF8AC4EA6F89C
:1015F800100228460EF0F8F8A6F80E0200F01ABD00
:10160800531C2B60A64B127883F8C3222A68511CFE
:101618002960127883F8C22200F00CBD28460EF02B
:10162800E3F800F007BD9F4B1A68531E093229687A
:10163800481C2860097803F8011F2968481C28609D
:10164800097899722968481C2860097819759A429E
:10165800EDD100F0EFBC531C2B6011780E298CD80B
:10166800931C2B605278032A87D88D4B062000FBE9
:10167800013383F8B2252A68511C2960127883F84F
:10168800AD252A68511C2960127883F8AE252A688E
:10169800511C2960127883F8AF252A68511C2960EB
:1016A800127883F8B0252A68511C2960127883F8CB
:1016B800B12500F0BFBC092E7FF65FAF7A48531CF6
:1016C80007682B6013783B702B685A1C2A601B78BC
:1016D800BB70391D002380462A68501C286010788A
:1016E800022B14BF6422FF22824203F10103A8BF28
:1016F8000246032B01F8012FEED12B685A1C2A60F1
:101708001B78642B28BF64233B722B685A1C2A6001
:101718001B78FB702B685A1C2A601B783B71284683
:101728000EF062F80A2E788100F084842A68D8F8CE
:101738000030511C296012785A720B2E00F07A84FE
:101748002A68511C296012785A7000F073BC284628
:101758000EF04AF86FF4AF67C319514E9BB2C62B0F
:1017680098BFA6F87A0228460EF03EF8A6F8CC00F4
:1017780028460EF039F8A6F8CE0028460EF034F8C0
:10178800A6F8D00028460EF02FF82B68A6F8CA0253
:101798005A1C2A601A46284612F8031B86F850126B
:1017A8002A609A7886F851221A1D2A60DB7886F812
:1017B8003B322B685A1C2A601B7886F877322B68D4
:1017C80001332B600EF010F82B6800EB80005A1CD8
:1017D8004000A6F80C022A601B7886F82E322B6887
:1017E8005A1C2A601B7886F832322B685A1C2A60E9
:1017F8001B7886F831322B685A1C2A601B7886F8C9
:10180800333200F017BC294F002628460DF0ECFFB4
:1018180014F056FA27F816000136082EF5D100F014
:1018280009BC0F2E7FF4A9AE531C2B601778072F25
:101838003FF6A3AE28460DF0D7FF194B0E2606FB40
:101848000736A6F8700128460DF0CEFFA6F87201FB
:1018580028460DF0C9FF2B68A6F874015A1C2A60A7
:101868001B7886F876312B685A1C2A601B7886F814
:1018780077312B685A1C2A601B7886F878312B68D8
:101888005A1C2A601B7886F8793128460DF096FF95
:10189800C6F87A01CEE300BF203700201E370020AB
:1018A80004650020B4350020641C0020885F0020F7
:1018B800531C2B6013780F2B3FF65FAE911C2960E9
:1018C800A9495278C3EBC3030B4483F800212A6863
:1018D800511C2960127883F801212A68511C29605B
:1018E800127883F802212A68511C2960127883F83B
:1018F80003212A68511C2960127883F804212A6878
:10190800511C2960127883F805212A68511C296026
:10191800127883F8062114F0F3F88BE328460DF0CB
:1019280063FF914EA6F8E60028460DF05DFFA6F885
:10193800E80028460DF058FFA6F8EA0028460DF002
:1019480053FFA6F8EC0075E3531C2B60864B127806
:1019580083F840222A68511C2960127883F84122B2
:101968002A68511C2960127883F8422262E37F4B6F
:10197800186811F08BF95DE31146531C2B607A4B04
:1019880011F8020B83F8E1012960517883F8E2111C
:10199800D11C2960927883F8E3214BE3531C2B6018
:1019A800714E137886F8F6312B685A1C2A601B781A
:1019B80086F806322B685A1C2A601B7886F8D730BE
:1019C8002B685A1C2A601B78072BA8BF07232846B8
:1019D80086F8D6300DF008FFA6F8D4002AE3531C89
:1019E8002B60624FDFF880811378D7F8009088F871
:1019F800F83128460DF0F8FEA9F820002846D7F857
:101A080000900DF0F1FE052EA9F8220040F2128395
:101A180028460DF0E9FEA8F8FA0128460DF0E4FE84
:101A2800A8F8FC012846D7F800900DF0DDFEA9F8CB
:101A3800240028463F680DF0D7FE0D2EF88440F2AA
:101A4800F98228460DF0D0FEA8F8FE0128460DF0D0
:101A5800CBFEA8F80002EDE2444E284637680DF0A8
:101A6800C3FE3885284637680DF0BEFE78852846BF
:101A780037680DF0B9FE2B68B8859A1C37682A605C
:101A88005B7887F835302B685A1C2A601B7887F8F2
:101A980038302B685A1C2A601B7887F839302B6835
:101AA800DA1C2A609B7887F8373028460DF09CFEB0
:101AB800B887284636680DF097FE7087BAE2531C3F
:101AC8002B60294B127883F8F1212A68511C296070
:101AD800127883F80A222A68511C2960127883F840
:101AE8000922A7E2224B1B785E0700F1A38212F0BD
:101AF800A9FC0FE01E4B1B785D0700F19B821D4B74
:101B08004FF4C872A3F8902094E2194B1B78590738
:101B18003FF533AD0DF0B6FC0DF066FA8AE2164BD0
:101B28001B78012B00F28682531C2B600E4B127817
:101B380083F809262A68511C2960127883F8072639
:101B48002A68511C2960127883F8082672E207F087
:101B580057FC6FE2531C2B601178084B81B1197840
:101B680041F002010FE000BF04650020B4350020F9
:101B78007863002058130020C4630020D841002057
:101B8800197821F002011970931C2B60AF4B527821
:101B98001A7028460DF012FEAD4E306328460DF03F
:101BA8000DFE706328460DF01FFE308728460DF0A5
:101BB8001BFEA84B188096F83E3043F0020386F8C7
:101BC8003E3037E2531C2B60284692F800900DF007
:101BD800F5FD804628460DF0F1FD074628460DF034
:101BE800EDFD064628460DF0FFFD28460DF0FCFDEC
:101BF8002B6801332B60B9F1000F12D1944B1020E0
:101C0800C3F88080C3F8847019F0C2F8924A137838
:101C180043F001031370002E00F00C828F4B1E60FE
:101C280008E2B9F1100F40F00582894BC3F88880AB
:101C3800C3F88C700EB1894A166089490222081FC0
:101C480083F892200AF04AFCF4E1864E00232846E5
:101C5800B3600DF0B3FDB3681843B060EAE12846FD
:101C68000DF0C2FD7F4EC6F8E40128460DF0BCFD1C
:101C7800C6F8E80128460DF0B7FDC6F8EC01D9E131
:101C8800531C2B60774B127883F82E222A68511C3C
:101C98002960127883F832222A68511C2960127848
:101CA80083F831222A68511C2960127883F833227C
:101CB800C0E128460DF098FD6A4EA6F8360228467F
:101CC8000DF092FD2B68A6F838025A1C2A601B7882
:101CD80086F83A3228460DF087FDA6F83C02A9E1BD
:101CE800531C2B605F4B12785A71A3E1531C5D4F54
:101CF8002B60137887F86C3228460DF075FDA7F82D
:101D08007E0228460DF070FDA7F87A0228460DF0ED
:101D18006BFD2B68A7F87C025A1C2A601B7887F891
:101D28007532082E40F2868128460DF05DFDA7F831
:101D3800860228460DF058FD0C2EA7F8880240F2BE
:101D480079812B685A1C2A601B7887F880322B68A7
:101D58005A1C2A601B7887F8813228460DF044FD0A
:101D6800102EA7F8840240F265812B685A1C2A605D
:101D78001B7887F86E3228460DF020FD2B68C7F8CF
:101D880070025A1C2A601B7887F8743252E1531C7F
:101D98002B60344E137886F8C8322B685A1C2A6098
:101DA8001B7886F8C93228460DF01EFD2B68A6F868
:101DB800CA025A1C2A601B7886F8CC3228460DF0D5
:101DC80013FD2B68A6F8CE025A1C2A601B7886F8E9
:101DD800D0322FE1531C2B601778112F3FF6CDAB73
:101DE800204E931C07F5A0772B6006EB470352782B
:101DF8009A7228460DF0F8FC40F2ED23984205DD72
:101E080040F6CA039842A8BF184601E040F2EE2007
:101E180006EB4706A0F2EE20192390FBF3F0F072D0
:101E280008E1531C2B600F4B127883F8772201E1ED
:101E38000C4800232A68511C296011781A180133AC
:101E4800082B82F86412F5D1F4E000BFD9410020D4
:101E5800581300204C630020D8410020841C002027
:101E6800E413002004650020531C754E2B60137882
:101E7800737128460023B3600DF0A0FCB3681843C3
:101E88002B68B0605A1C2A601B7886F86C3228468A
:101E98000DF0AAFCC6F8E40128460DF0A5FCC6F82A
:101EA800E80128460DF0A0FCC6F8EC0128460DF024
:101EB8009BFCA6F8360228460DF096FCA6F83802D8
:101EC800B8E00723B6FBF3F3C3EBC302B61A7FF4FB
:101ED80054ABDFF884915FFA83F8F3B2984500F0C9
:101EE800A9802B68D9F800105A1C2A6093F9003091
:101EF800002201EBC20797F90200984204D0013290
:101F0800052AF6D1FFF739BBBA1C06F101063FF4E2
:101F180034ABBB7028460DF067FCB8802B685A1CA0
:101F28002A601B78BB712B685A1C2A601B78FB71CE
:101F38002B685A1C2A601B787B722B685A1C2A60F3
:101F48001B783B72C9E73E4E06F1400728460DF064
:101F58004BFCA6F8A4032B685A1C2A601B7886F849
:101F6800A6332B685A1C2A601B7886F8A7330436D8
:101F7800BE42EBD15EE0531C2B6017781F2F3FF653
:101F8800FCAA052E7FF4F9AA28460DF017FC2C4B65
:101F980003EB8703C3F8240314F072F94AE0531CD7
:101FA8002B60134613F8020B2B60D31C51782B605F
:101FB80092780CF0ADF900283CD1FFF7DEBA002189
:101FC800112220481DF008FA102E1D494FF0000379
:101FD80028BF1026B3422DD22A68501C28601078DA
:101FE8005A18013382F81406F4E7154A01F5AB7163
:101FF80002EB8101144A1344002093F830304B71EE
:102008002B685A1C2A601B788B712B685A1C2A6013
:102018001B78CB712B685A1C2A601B780B720B4BF0
:102028001A680B4BC3F8942019F001FA094B80F099
:10203800010018700120608140B20BB0BDE8F08F3C
:1020480004650020186B002040F50108B435002015
:10205800581300207C0000202C6B00202DE9F04F45
:10206800914B924A2DED068B1A60914BA7B0002236
:102078001A600CF095FF18B912F0E4F90DF002FAA5
:102088000CF0B2FF8B4A137843F0010313708A4AAD
:102098008A4B116899424FF0000309D1136062B668
:1020A800874B1B6883F30888864B1B689847FEE7B5
:1020B800854A864F4FF47001C2F888100B930C9331
:1020C8003B6843F480333B603B6803F400330C9374
:1020D8000B9B01330B930C9B1BB90B9BB3F5A04FC8
:1020E800F2D13B6813F4003318BF01230C930C9B07
:1020F800012B4DD0DFF8D081754BC8F80C30754EE8
:102108007D6A35607B6A43F080737B627B6943F448
:10211800FC0326AC7B6103238DF84A3041F6FF733C
:1021280024F8503D4FF09040214607F001FA4FF651
:10213800FF7321466848ADF8483007F0F9F92146A1
:10214800664807F0F5F92146654807F0F1F9214698
:10215800644807F0EDF92146634807F0E9F920469D
:102168000CF0E9FB129B614AB3FBF2F3604A614849
:102178001360614A614B5360F02388F823300721CC
:1021880000239360DFF898E111604FF0010C28E01C
:102198005B4B12221A607B687B607B687B607B6884
:1021A80043F480637B607B6823F47C137B607B68EB
:1021B80043F4E8137B603B6843F080733B603A6804
:1021C800424B9201FBD55A6822F003025A605A68C2
:1021D80042F002025A607B6803F00C03082BFAD124
:1021E80088E799023EF8134001F19041002244FA31
:1021F80002F818F0010F18BF0CFA02F802F10102F8
:102208001EBF0160A0F804800830102AEFD1013306
:10221800062BE6D13B4C3C4B94F80722DFF804919F
:102228001A700020A368C9F8003019F09BF8374BE2
:1022380093F800B04FF000084FF0050A0BEB0802C6
:10224800334B53F8220008F1010830B180F806A09A
:1022580080F80780012114F0BBFFB8F1030FEDD11E
:10226800002019F07FF8BB692A4A2B4843F0010384
:10227800BB61136843F480531360002140221DF0B2
:10228800ABF8264B4FF0FF321A60C3F80320D9F899
:1022980000301F0751D594F86C32012B4DD815F03A
:1022A800805500F0AB8648E0743500209DEF0008AB
:1022B80078350020B46C0020FC9F0020EFBEADDE16
:1022C80000D8FF1F04D8FF1F00ED00E000100240F7
:1022D8000005FA05F0130020000400480008004833
:1022E800000C0048001000480014004840420F004D
:1022F800DC390020CC63002010E000E03F19010029
:1023080000200240046500204C1C0020C021020867
:10231800C421020800000140984300209C4400208A
:10232800921602086838002093F87622012A04D110
:10233800002283F8752211F0C5FC642010F05BFFC1
:102348004FF48C720021AF48AF4F1DF045F80025BF
:10235800E859DFF8B48210F05FFE143518F036FE45
:10236800B5F5AA7FF4D1002508EB050714353879AF
:1023780014F09FFE3A7A022114F0EEFEB5F5AA7F1A
:10238800F2D1A24BA24A1A604FF00508D9F80050C2
:10239800A04886F804803C2200211DF01DF8002288
:1023A800DFF8C0E2DFF86CC2434605F0400710468C
:1023B8004FF0FF081EF9011F02F80C1002EB0C0980
:1023C8004FB91E39C9B201299FBF03F1FF3389F8FC
:1023D8000080DBB201200C323C2AEBD100B1337112
:1023E8008D4B617919708D4B8D48B360F433AE060F
:1023F800036058BF8B4B8C4A56BF03EBC1030123C4
:102408005B78D360894A002340F2DC5122F813102C
:102418000133082BFAD1B4F8D0300293ED0442BF4F
:10242800834BB3F8EA30029394F8D630042B05D1E5
:102438004FF4805014F0BCFF002302936279794B6B
:1024480013F8323094F8D620079394F8D730072A37
:102458001AD8DFE812F00E06190018060800090657
:102468000D000D000D00734A04924FF048080FE06C
:10247800003318BF012306936F4B704A1A6001237B
:102488004FF0000805930BE06D4A04924FF00808DE
:10249800002B40F0FE85684A6A491160059306934F
:1024A800694B6A4E03FB08F30893694B03930027B3
:1024B800079BBB4204DD5E4BFB1893F8D9403CB93F
:1024C800594D5B4EEB680293002B00F0AC819DE107
:1024D8000021204610F0EEFC05460028F0D02046EA
:1024E80014F0E7FD059A7061002A00F06481504BF2
:1024F80093F8D6B0039B43F8085C28792C6814F04D
:10250800D8FD494A002392F8009402F204424B4550
:1025180008DA52F833108C4202D15FFA83F90AE0E4
:102528000133F4E7404B09F1010283F8002403EB7F
:10253800C903C3F804443C4B93F800A403238371F4
:102548000023C3710AF1FF3A2A7A09932E2114F065
:1025580003FED145099B34D14FF0FF322046ADF838
:102568004830ADF85030ADF84A30ADF852301392DB
:1025780010F052FD18F02AFD238823F001031B04F4
:102588001B0CBBF1050F238006D0324A324BBBF13E
:10259800060F18BF134600E0304B314AB2FBF3FB7D
:1025A80027230BF1FF3B139312A900232046ADF814
:1025B80048B0ADF85030ADF85230ADF84A3018F0A8
:1025C80029FE0023ADF83830ADF83A300F93ADF856
:1025D8004030ADF84230ADF84430ADF846306023B5
:1025E8000D93EB7913F0040F03F002033CD0002B9A
:1025F8004FF004020CBF00230823ADF83A20ADF8D1
:1026080042303AE0C0380020EC1702082C6B00205A
:10261800D6670020346B0020E825002010650020D4
:1026280054420020080D0208F0130020EA2500207B
:1026380004650020CD6C010880420020AD860008AA
:102648002D6D0108556C010840420F000460002000
:102658000C140020808D5B00001BB70000366E0153
:1026680000A24A04DF1202080122ADF838204FF414
:102678008072ADF84420ADF840304FF0000BCDF833
:102688003CB00DAA6979204610F079FB697920469B
:1026980018F002FE6B790C2B9CBFA94A32F813B0D4
:1026A800039B23F802BCA74B03EBC903D145B3F83E
:1026B80008244BEA020BA3F808B46A794FF0010327
:1026C80003FA02F3226A22EA03022262226A43EA36
:1026D800020323620DD1636C43F4004363642388CF
:1026E8009BB243F08003238023889BB243F001030D
:1026F8002380297CDFF880E2934BEC685A691C2020
:1027080000FB01E14FF0000A0B691A438E4B5A6136
:1027180003220A767A1C4A762A7C596900FB02E36E
:102728004FF001091A690A4387494A61874A9A6042
:102738005F6112A85B7B8DF848308DF849908DF861
:102748004AA08DF84B9018F045FD22684FF6FE73AD
:102758001340236020460CF030F812A80CF002F861
:102768002B6803F134026B79CDF858A01344129307
:10277800039B1393102314931223ADF85430802332
:1027880017934FF4007318934FF40063199312A929
:102798004FF4005320461B93CDF868A0CDF870A0E5
:1027A8000BF0EDFF236843F002032360684BF360EE
:1027B80086F8109020E0032282717A1CC2710221EF
:1027C80014F006FD049BF360069B5FFA88F24BB198
:1027D800604B0899B3F8D430B1FBF3F30299009138
:1027E8009BB203E0069B00934FF6FF7329463046E1
:1027F80014F002FC01233374039B013754330C2F6C
:10280800039306F118067FF453AE59E6524FDFF8EA
:102818006C9106F1F10800244FF0040A18F801BF82
:10282800BBF1000F06D14D4A136813F0010790461B
:1028380026D1A5E0584614F03CFC0134E4B2786196
:10284800022180F806A0C47114F0C2FC0021584689
:1028580010F030FB01460028E5D0B6F8EE20B6F8B7
:10286800F0300092384699FBF3F301229BB214F042
:10287800C3FB0123082C3B7407F11807CED1D2E71C
:1028880096F814A3364B96F8D6900024FF2201211F
:1028980050461C705C609C60DC601C6483F84420BB
:1028A80083F8452083F8464083F8474083F848403A
:1028B80010F000FB0746002800F0A78002682949AD
:1028C8006318187C10B15B689A4204D01834B4F5C8
:1028D800907FF5D10EE009F1FF33032B0AD8DFE82A
:1028E80003F002060406082202E0482200E018224B
:1028F8001D4B1A70002485F84444C5F8507450469E
:1029080014F0D7FB02228271C471402114F060FCDC
:1029180022467979386814F004FB214638460122AA
:1029280010F040FB114B124AC5F85434114BC5F84E
:102938005834C5F85C44111F384610F0ADFB64E00C
:10294800E4F60108F0130020001002406786000832
:10295800E986000804650020DC4300206838002070
:102968004843002004600020F40F0020916A010809
:1029780048180020F16B01080010002040420F00A9
:102988009C0442D5BA4CF319022193F815230492FA
:10299800104610F08FFA814690B3049A44F8040C5C
:1029A8004FF0000AFBB24FF0010B104604F80F3C41
:1029B80004F80EAC04F806AC04F810BC039314F049
:1029C80078FB039B80F806B05B44C371402114F088
:1029D800FFFB524699F80510D9F8000014F0A1FA47
:1029E8005A465146484610F0DDFAA24B2360A24BE6
:1029F8006360C4F808A0221D2146484610F04CFB2D
:102A08000137082F04F11C04BDD19C4B96F8C02255
:102A18001A709B4B9B491B689B4A00241B1B18BFC1
:102A280001230B70994B14701F78A7F11703022B21
:102A380096461DD8DFF894C2AB682344D3ED007ADC
:102A4800F5EE407AF1EE10FA04D1D8F80030D80447
:102A58002DD426E00FCB04EB0C0989E80F009EF873
:102A6800003010340133C02C8EF80030E4D1ECE78C
:102A7800874B13F8379082F8009003EBC703D3F81D
:102A880004A0BAF1000FE0D0DFF840B24C45DCDA20
:102A9800230103EB0B0C53440FCB01348CE80F00DC
:102AA800F4E77C4B7C4AB3F9001000231FE09EF842
:102AB8000020012AF5D9794B03EB02121032F6EE09
:102AC800007A10339A42ECD013ED047A27EE277A75
:102AD80003ED047A13ED057A27EE277A03ED057ADC
:102AE80013ED037A27EE277A03ED037AE9E722F854
:102AF800131001330C2BFAD1029B2BB907F0EF030B
:102B0800082B674B20D121E0664B674A13F837C082
:102B180082F800C003EBC70358680028EED0634C66
:102B280000236345EADAC3EBC301421801EB040E44
:102B3800D2F8009041F804909188AEF80410927988
:102B48008EF806200133ECE70E2F08D11A7842F0F0
:102B580010021A70182F08D112F0D2FF05E01A7867
:102B680022F010021A70192FF5E7514C96F81D0340
:102B7800237843F00403237014F09BFA4D4A4E491E
:102B8800106096F81E23003218BF01220A702646EC
:102B980060B122228271494B0022C27193F81F331F
:102BA80093420CBF0121112114F012FB444C002068
:102BB80010F044FB207E18F009FA237E03F01F0171
:102BC8005B090122022B02FA01F208D0032B0BD079
:102BD800012B0DD13B498B6A1A438A6208E03949B7
:102BE800CB681A43CA6003E036490B691A430A6185
:102BF800607D14F05EFA022712238371C771E07DAD
:102C080014F057FA13238371C771A07D14F051FA99
:102C180014238371C771607D14F04BFA627E0E2114
:102C280014F09AFAE07D14F044FA627E0E2114F052
:102C380093FAA07D14F03DFA627E0E2114F08CFA0E
:102C4800207D30B114F035FA1D4B0D215A7E14F059
:102C580083FA21691C4B99423AD103F56043DA683B
:102C680042F48052DA60DA6822F48052DA6049E08D
:102C780044180020696F0108696A0108D8430020D8
:102C8800804200207E42002064420020E825002087
:102C9800080D0208B2350020885F002018250020A2
:102CA800D8410020200B0208E0410020E14100202B
:102CB800B46C0020E0390020E439002004650020CD
:102CC800541100200010024000300140102500205F
:102CD800944B994209D103F5EC331A6942F48042C6
:102CE8001A611A6922F480420BE08F4B994209D18C
:102CF80003F5EA331A6942F400421A611A6922F4A8
:102D080000421A61237F13B10023184601E0012312
:102D180002208A8822F480521204120C8A808A883F
:102D280092B242F480528A8021690A8802F44152A0
:102D380042F44572134303430B808B8823F470637A
:102D48001B041B0C43F4E0638B808B8B23F4006320
:102D58001B041B0C8B8307230B82226913889BB2ED
:102D680043F040031380207D18B114F0A2F914F049
:102D7800C8F9D8F8003003F41073B3F5107F60D0A9
:102D8800262014F096F90546272014F092F9674F8B
:102D98000446752018F01AF93B6B23F010033B63C7
:102DA8003B6B43F010034FF001093B631523AB71F4
:102DB80085F80790284604221E2114F0CDF9162321
:102DC800A37184F80790204604221E2114F0C4F948
:102DD800574A584C136823F0010313601168564B87
:102DE8000B401360554B13611368002143EA090334
:102DF80013609160D1609160936843F400439360DD
:102E080013681360536823F0784323F40043536036
:102E1800136823F400331360136843EA090313604B
:102E2800D8F800A014252A4620461CF0D5FA1AF036
:102E3800020F0AF400490AF40068204617D02570EA
:102E480015E000232A793E481946FF241F561F2FF4
:102E580004BF1C5402F1FF3203F10C0304BFD2B2C9
:102E680001213C2BF2D100298AD02A7188E7B9F1D7
:102E7800000F01D022234371B8F1000F01D01523B0
:102E8800C37300252F4CDFF8CCA04FF00709A846E4
:102E980014F8010C30B314F00CF980F8069080F89F
:102EA800078014F8010C14F004F9132114F090F9B8
:102EB80014F8011C0023244810F8130088424FEA34
:102EC800430203D10AEB0203DB7E03E00133272B25
:102ED800F1D1002307222370E2706B1C0122657078
:102EE800A270DDB209F101095FFA89F9B9F10B0F96
:102EF80004F10504CCD1FB6A23F4F873FB62FB6A86
:102F080043F4D873FB623C2018F060F80F4910486E
:102F180000231C2202FB0314646884420C4C1BD15E
:102F2800DAB21DE000380040003C004000100240CA
:102F38000054004018280020FFE0CF00300E500059
:102F4800346B002019280020FEF60108001000202C
:102F580008040240E4F6010801330C2BDAD1002200
:102F68008C4B79691C2000FB02338B481A690A4391
:102F78007A61062200271A765F760BF01EFC12A8EB
:102F88000BF0F0FB854B1293022D854B139334BF46
:102F98003B46802317934FF4807318934FF4806354
:102FA800199320231A9312A94FF400537A481B93BC
:102FB8001497ADF8545016971C970BF0E0FB236854
:102FC80043F001032360774CA36823F04053A360C8
:102FD800A36843F08053A3600A2010F00CF9A3689B
:102FE80023F08043A360A368A360A36843F0004371
:102FF800A360A3686B49002B4DDAFAE76A4B93F894
:103008007532013B092B3FF698A92B2014F051F893
:10301800252383710746C5710121C6F8040614F0FB
:10302800D7F83846012114F071F83C2010F0E3F885
:1030380094F875225C4B9542BFF676A9002018F0EB
:1030480091F90021384614F061F8782010F0C8F89A
:10305800012018F087F90121384614F057F8782034
:1030680010F0BEF80135E3E7504B04934FF0180811
:1030780003E04F4B04934FF001080023029305939C
:103088000123FFF70CBA4B4A04924FF01808FFF7D8
:10309800FFB90023F3E78B68474A23F040538B605E
:1030A8008B6843F000538B609068444B034043F4B3
:1030B80068339360CA68424B4248134043F4005354
:1030C800CB600B6B23F00F026B1E13430B6300F1F5
:1030D800140801234FF038094FF0070C4FF0060E83
:1030E8001F24C278002A7FD05D1C042B4278077900
:1030F800EDB20ED803EB4303D1F830A05B0004FA1D
:1031080003FB2AEA0B0A02FA03F343EA0A030B63F6
:103118002FE0092B0ED8053BD1F834A00EFB03F3A2
:1031280004FA03FB2AEA0B0A02FA03F343EA0A0346
:103138004B631EE00E2B0ED80A3BD1F838A00EFBCD
:1031480003F304FA03FB2AEA0B0A02FA03F343EA3D
:103158000A038B630DE00F3BD1F83CA00EFB03F391
:1031680004FA03FB2AEA0B0A02FA03F343EA0A0306
:10317800CB63092A28D90A3A8B698B6902EB420288
:103188000CFA02FA23EA0A038B618B6997401F4302
:103198008F6128E000100020080402404001005020
:1031A8002C2800200001005004650020316C010823
:1031B800216C0108056D010800030050E010FCFFB8
:1031C80007C0FFFD18280020013A4B694B6902EB44
:1031D800420209FA02FA23EA0A034B614B690332F5
:1031E80097401F434F612B46053040457FF479AF28
:1031F8006B4B9A6842F001029A601A461168684B54
:10320800C907FBD5DA68674C22F00202DA60DA688F
:1032180042F00202DA60DA6842F00102DA609A6883
:1032280042F004029A60D4F8E431002B41F029807E
:10323800D4F8E821002A41F02480D4F8EC21002AAF
:1032480041F01F80584D0023C5F82435574B4FF0E7
:10325800FF321A60564B1B689A0330D5C8200FF00E
:10326800CAFFAE2011F0ABFE08B111F0ADFE85F833
:103278002805C8200FF0BFFF4E4BC5F82C35082392
:1032880085F8303515234C4A85F83135012100235E
:10329800C5F83825C5F82415C5F83C2585F8343512
:1032A800464D2B606B60AB600223EB700FF04CFF58
:1032B80008F085FC0FF048FF414B0344AB6094F8DD
:1032C800F131404F0293B4F90C3203934FF00009E7
:1032D800B4F8F431344DDFF800810493182294F8DF
:1032E800F631C7F800904946C7F80490C7F8089027
:1032F8003548059394F809A294F80AB21CF06CF8C2
:1033080049461822A8F8009005F24C501CF064F8C1
:103318002E4AC5F8642523200FF06DFF0DAA012160
:10332800752005F02BFB78B3294AC5F85025294AA2
:10333800C5F85425432285F84C25012112AA484690
:1033480005F01CFB9DF8483003F07E038DF84830EB
:1033580040B1682B06D1012388F800301D2385F879
:103368004C3511E09DF834301B4A03F07E03682B7E
:103378008DF8343004D10223137006F089F803E085
:10338800702B04BF04231370144900230B70124BD5
:103398001A78022A24D001200FF05EFF3FE000BF18
:1033A8000001005004650020F013002000000020F8
:1033B800683800204CF701081C1900203C610020E7
:1033C800404B4C00645800206851002068F7010801
:1033D80085890008D78A0008B257002004590020C0
:1033E800CB4BCC481860CC485860CC48D860CC4807
:1033F800186104230B70CB4B02981A70CA4A1368E1
:1034080043F001031360059B01939DF8103000936E
:103418005A46039B514614F047FA0028BBD033782C
:10342800002043F00203337017F09CFF0A2617F0C0
:103438008BFF19200FF0DFFED4F80C36DB0302D423
:1034480001200FF0FBFE19200FF0D5FE00200FF031
:10345800F5FE013EEBD13046B34E17F083FF3368DB
:10346800180705D5B14B1B689847B14B01221A7054
:10347800B04B9FEDB18A1B68DFF8DC821B7B00EE46
:10348800103AB8EEC00A20EE080A0CF061FBAB4B0C
:103498009FEDAB7A83ED000A9D4BD3ED047AA94BDF
:1034A80067EE887AC3ED007A3B89A74F07EE903A1A
:1034B800F8EEE77AA54BC7EE276A9FEDA57AC6EE28
:1034C800877AC3ED007A17F0F1F8FF211E224046F3
:1034D8001BF082FF9F4BD6F800E001221A700022F1
:1034E80088F800203A6812F4800F01BF0221197091
:1034F8001B2188F801101EF0020F40460ED01978E3
:103508004FF0010C08F801C001F1020C0131C9B2F9
:1035180083F800C04FF0020C08F801C01EF0040F39
:1035280008D0197801F1010C83F800C04FF0030CA2
:1035380000F801C01EF00A0F16D019784FF0040EDB
:1035480000F801E001F1010E5FFA8EFE4FF0050C64
:1035580000F80EC001F1030E0231C9B283F800E091
:103568004FF0060E00F801E011060ED519784FF05D
:10357800090E00F801E001F1020E0131C9B283F829
:1035880000E04FF00A0E00F801E0910508D519781F
:1035980001F1010E83F800E04FF0150E00F801E08C
:1035A800D10508D5197801F1010E83F800E04FF034
:1035B8001A0E00F801E094F805E0BEF1080F02D0F9
:1035C800BEF10E0F08D1197801F1010C83F800C083
:1035D8004FF00B0C00F801C0197801F1010C5FFAEB
:1035E8008CFC4FF00C0812F4803F83F800C000F800
:1035F800018009D0DFF85C81023188F80010564953
:103608004FF00E0801F80C80110308D5197801F164
:10361800010C83F800C04FF0190C00F801C01978AC
:1036280001F1010C5FFA8CFC4FF01D0812F4805F69
:1036380083F800C000F8018009D0DFF81881023152
:1036480088F8001044494FF01C0801F80C809106D6
:1036580008D5197801F1010C83F800C04FF0070C68
:1036680000F801C0510708D5197801F1010C83F859
:1036780000C04FF0100C00F801C0510308D51978AC
:1036880001F1010C83F800C04FF0120C00F801C0E2
:10369800520507D594F8FC2222B11A78511C1970EA
:1036A80013218154BEF1180F0ED11A7816218154B6
:1036B800511CC9B24FF0170C00F801C0D11C0232DE
:1036C800D2B2197000F802E04FF4CC7200212348FE
:1036D8001BF082FE0EF0E2F9214BC5F86835002395
:1036E80085F870350D2385F86C351E2385F86D3502
:1036F800D5F824351B4A042B36D0591C02EB83031A
:10370800C2F8241502F5AD62C3F83C252CE000BFD1
:1037180068510020D58C000869850008518500088B
:1037280090C1793DF50F0020745800208C58002076
:10373800B06C00206863002035FA8E3C7C63002062
:103748000AE81C415863002068380020846C002077
:1037580000401C468613002068130020584D0020A6
:103768006CF70108F0130020A94BAA4A1A60AA4B6B
:10377800B4F8EC101980A949A94DAA48DFF81CA390
:10378800DFF81CB3DFF81CC3C5F804A000230B80C6
:103798008B70A5490A60A54AAA60A54A1370A54A74
:1037A8000260B4F87A228046A34811B2DCF800E03F
:1037B8002BF813100EF5967E40F823E00133122BF8
:1037C800DFF8DCE2DFF8DC92F0D13868C30458BFD8
:1037D800B4F98612AEF80610984901F1500491F830
:1037E8005D35FBB991F85FC591F860359C4519D2F4
:1037F800BCF1000F08D00CF1FF3C0CEB8C0C0CEB6F
:103808008C0C0CF5617306E0013303EB830303EBC7
:10381800830303F5617391F85EC50CF1040C9BB248
:103828002EF81C3004318C42D9D1040740F1B981FB
:10383800824C94F86C12082900F2AE81DFE811F08E
:10384800090009005C008C00AC00CC00CC005E01D3
:1038580085017B4B724A1D6001297A4BDFF848E2EB
:1038680079480CD14FF0030C83F800C007238EF879
:1038780000300C231370017042F6F8230AE002218D
:10388800197003238EF80030002303700723137088
:1038980045F2F05353806D4B6B6040206C4BAB602E
:1038A80011F042FD8346002800F076810AF05AFAAA
:1038B8009BF900E000280CBF012303230022834664
:1038C80001920093634A4FF4E1334021704611F0AE
:1038D800ADFCBBF1000F02D05F4BC3F8740594F840
:1038E800773229785D4A013BDBB29942137000F2C6
:1038F8004F81002313704BE159490A23120192FBAF
:10390800F3F20023A2F5B06241F823200133122B11
:10391800FAD12B7042F6F8236B80524B6B60402033
:10392800514BAB6011F000FD8346002800F0348154
:103938000AF018FA94F86D329BF900E0002B0CBFDE
:103948000622072200280CBF0123032301920093BB
:103958000446384B454AEFE010232B7042F6F82313
:103968006B80434B6B604020424BAB6011F0DCFC3A
:103978000446002800F010810AF0F4F9002200281B
:103988000CBF0123032394F900E00192009304463D
:103998004FF4E133384ACFE008232B7042F6F8237E
:1039A8006B80364B6B604020354BAB6011F0BCFC34
:1039B8000446002800F0F0800AF0D4F9002200281C
:1039C8000CBF0123032394F900E0019200930446FD
:1039D8004FF4E1332B4AAFE02B4C2C482C4ADFF84C
:1039E800CCC000234FF00C0E062985F800E02370A8
:1039F800037013705CD01B238CF80030254B83F8C0
:103A080000E0254B05221A704FF4E13B5AE000BF55
:103A180048280020686700204628002078380020C1
:103A28005C380020A83800205838002015100108FC
:103A3800F8270020A0860100B02700200465002098
:103A4800F4370020F337002073360020390E0108C0
:103A5800ED120108C5130108F0130020F237002009
:103A6800A4360020610E0108950E010815140108FE
:103A7800A10D0108B50D010841120108190D010831
:103A88002D0D0108F9110108D0350020C937002093
:103A9800C8370020F2350020CB3700201910010864
:103AA800144D002074380020F8370020CA37002051
:103AB80021238CF800306A4BDFF804B283F800E069
:103AC800684B197042F6F8236B80674B6B60402097
:103AD800664BAB6011F028FC044600285CD00AF065
:103AE80041F9002200280CBF0123032394F900E0C8
:103AF8000192009304465B465D4A1DE00E232B703D
:103B080044F620636B805B4B6B6040205A4BAB6084
:103B180011F00AFC044600283ED00AF023F90022DE
:103B280094F900E0019200280CBF01230323534AB3
:103B3800009304464FF4E1334021704611F076FBC0
:103B480034B34F4BC3F8740522E010232B7041F2B5
:103B58007C536B804B4B6B604B4BAB604B4B0024E7
:103B68001C704B4B282240201A7011F0DDFB98B1D5
:103B7800032390F90000474A019400934021464BE3
:103B8800464C11F053FB0121206013F097F920688F
:103B9800003018BF012020B9082013F009FCC5F82F
:103BA80004A03A6850040BD512232B7044F6206306
:103BB8006B803B4B6B603B4BAB603B4BC8F80030BA
:103BC80042F20103134002F4005173B144F620603D
:103BD800364B688019B108211970354904E0D107BE
:103BE80003D50C2119703349596012F0800F244C09
:103BF80000F0918000251522294604F5B36084F869
:103C08007955C4F87C55C4F880551BF0E5FB2A4B60
:103C1800C4F8B035284615F08BFED9F80030C4F842
:103C28008435022011F080FB18B9802013F0C0FB06
:103C38006AE0427994F87935DFF880E029464FF058
:103C48000C0C0CFB03E595F8A55095423AD00133CE
:103C5800DBB2042B4FF00101F3D9002333E000BF9E
:103C6800F2350020CB370020550C0108690C0108FB
:103C78002D1101087D1001088D1001085515010846
:103C8800F013002065100108E9170108103800201A
:103C9800113800206D14010848E801002C1C002090
:103CA800551001083D100108400D03005C38002044
:103CB8002D1001081D10010854670020E4F60108C2
:103CC80090D0030009B184F87935CA4B94F8792566
:103CD80093F8503290F90000002BC74B4FF00C05B9
:103CE80005FB02330CBF01210321002293F8A53004
:103CF8008DE80600022111F099FAC04B18600028DF
:103D080093D0012015F014FEBD4BBE4A1868BE4B77
:103D18001A6008F02DFC3B689D0555D5BB4AB54D8A
:103D2800936943F00103936195F8200313F0C1F9F7
:103D38004FF000080F228271012180F80780C4F833
:103D4800B40513F045FA95F8210313F0B2F94FF0D2
:103D5800100A80F806A080F8078041460546C4F896
:103D6800B80513F035FAAA4BAA49C4F8BC35802225
:103D78005346284613F059FA284617F0FBFAD9F8A3
:103D880000309FEDA50A3C3BC4F8C035336843EAD0
:103D98000A0333604FF4C873A4F8C4359F4BC82294
:103DA8001A800BF0D5FE9E4BDFED9E7A83ED000A5C
:103DB80020EE270A9C4AFDEEC07A17EE903A13804F
:103DC8009A4B4FF0FF321A60994A9A4B1360C4F825
:103DD800C835002384F8CC353B68D80301D50AF0F0
:103DE8009BF93B68590540F18380DFF88882924B44
:103DF800D8F800201A60042011F096FA0421C4F8BB
:103E0800D00511F069FA8D4BD8F8002084F8D40554
:103E180008201A6011F088FA894B8A4D1860082129
:103E280011F05AFA2C2284F8D505002128461BF0F7
:103E3800D3FA8E236B707C27E0237D26EB702F70DE
:103E480085F82B60804D00212C2228461BF0C4FAEF
:103E58008A236B70A023EB707C4BD8F800201A6083
:103E680020202F7085F82B6011F05EFA2021C4F80D
:103E7800D80511F031FA84F8DC05102011F054FA55
:103E88001021C4F8E00511F027FA714B84F8E40515
:103E98003B221A7001225A703A221A719F229A7193
:103EA8001E221A720025A4225A729D72DD721D7399
:103EB8004FF4007011F038FA4FF40071C4F8E805B7
:103EC80011F00AFA634BD8F8002084F8EC054FF497
:103ED80080601A6011F028FA4FF48061C4F8F00588
:103EE80011F0FAF95C4B84F8F4051D7009F047FFEE
:103EF8005A4D2F88002F40F0C4802C2013F0D9F899
:103F080018230D2106468371C771C4F8F80513F00C
:103F18005FF9304613F0F5F8514A138823F040034F
:103F28001B041B0C1380138823F038031B041B0C81
:103F3800138013889BB243F04003138032209F23E1
:103F48008DF834308DF835708DF836708DF83770FF
:103F58000FF051F930468DF8497013F0CDF804226E
:103F68000DA912A817F018FA304613F0CAF89DF8F0
:103F78004A309DF849201B0243EA02429DF84B3023
:103F88001343384A93421CD00CDC374A93421AD068
:103F98000132934219D0A2F51A42033A93426BD1E7
:103FA800202318E0314A934213D003DC023A9342AB
:103FB80009D061E02E4A934205D00132934204D0E1
:103FC8005AE0402307E0802305E04FF480732B80FC
:103FD80004E04FF400732B804FF480736B80AB8840
:103FE8002A881B02AB605343EB60012384F8FC353D
:103FF80047E000BF04650020E4F6010838610020AE
:10400800B435002048670020D01C00200010024072
:1040180025BB0008AC190020DB0FC93E786C0020D6
:10402800746C00200000C843806C00205C130020E2
:10403800BC38002028680020181A0020541A0020D4
:104048009C1A0020241A0020581A0020181C00204E
:104058003C510020481C0020451C0020D00F0020A7
:10406800003800401620C20017BA20001920C200EC
:104078001740EF006035002000232B806B80AB6079
:10408800EB60EE681EB3F60A37464FF000080DF1F4
:104098004809B04509DA08EB06056D1010224946B3
:1040A800E80205F0CBF90F2805DCFF0205F06AF9F4
:1040B800C4F800760BE0002359F82320013240F0C1
:1040C800DC800133042BF7D12E462F46E1E7A54CBF
:1040D800A54EB4F8F431A54D013B9BB2052B9EBF0C
:1040E800012384F8063284F8F6317369DA1C94F8EF
:1040F800063253439E4A13602B689E4A13F40023EA
:1041080018BF012313706379052B02BF9A4B4FF434
:10411800C8721A800AF07EFD984BC8221A80984A05
:10412800137843F008031370964A137823F00203B8
:1041380013702A6840F60203134063B1924B934907
:104148001960934B03211970924900230B7092490F
:104158000B8092490B80920306D5914B06221A7167
:10416800DA7842F00102DA70A3682B608D4B8E4832
:104178008E4F8F4C4FF001080021482283F80080B1
:104188001BF02AF98B4A002313608B4A38461360C8
:104198000DF034FA7369642B38BF64237B6441469D
:1041A80040460AF039FE23689B0709D5414602209C
:1041B8000AF032FE814B1B68642B38BF6423BB674F
:1041C80021680320C1F340010AF026FE01210520E1
:1041D8000AF022FE2B6840F602011940003118BF90
:1041E800012106200AF018FE012104200AF014FE1D
:1041F800012107200AF010FE29680820C1F3C01128
:104208000AF00AFE21680920C1F3C0010AF004FE81
:1042180021680A20C1F380010AF0FEFD21680B2005
:10422800C1F300110AF0F8FD236813F0140F14BF4E
:10423800012100210C200AF0EFFD29680D20C1F3AF
:1042480040410AF0E9FD29680E20C1F380210AF0F7
:10425800E3FD69880F2001F001010AF0DDFD01216D
:1042680010200AF0D9FD564A137863F07F031370C3
:1042780027B0BDEC068BBDE8F08F05F101083D467F
:1042880023E71BB208EE103AB4F9E831DFED4D7AB6
:104298004D4A09EE103AB4F9EC31B8EEC88A08EE86
:1042A800903A28EE278AB8EEC99AF8EEE88A0021F3
:1042B800B0EE480A29EE279A68EEA78A11700BF02B
:1042C80047FCF0EE409AB0EE480A0BF0E0FBB0EE87
:1042D800408AB0EE490A0BF03BFCB0EE40AAB0EEC3
:1042E800490A0BF0D4FBF0EE40AAB0EE680A0BF0D6
:1042F8002FFCB0EE409AB0EE680A0BF0C8FB69EEEE
:10430800806A68EE097AF0EE665AEAEEA75A2F4BF1
:1043180029EE896A28EE007AC3ED035AB0EE465AB0
:10432800F1EE6A5AA5EE875AEAEEA67AA5EE867AE3
:104338002AEE099A2AEE400A28EE4A8A69EE8A9AF3
:1043480083ED009A83ED010AC3ED02AA83ED045AB6
:1043580083ED058A83ED067AC3ED077AC3ED089AE3
:10436800FEF770BF046500206851002068380020FF
:1043780060420020C4630020E8130020606C002025
:10438800D841002078630020B03400203267002034
:10439800F6620020B83400200C4100200E410020B5
:1043A8003C61002008270020183500205C0C002004
:1043B80074580020B86C002014350020785800206C
:1043C800B46C002035FA8E3C580C00208C34002048
:1043D8002DE9F04F2DED028B8DB0074609F0CFFC8B
:1043E800C44B1E78002E41F09585C34D2B685B05A4
:1043F80041F19085C14CDFF84883637A002B00F0C7
:104408002282D8F80020E368D31A7C2B40F21B8262
:10441800BB4BDFF830B3B3F8EC90237CDFF828A36C
:104428009FEDB88AE2600133237406F12400C0B21C
:1044380009F04CFC5BF8263007EE903ABAF80830E1
:1044480007EE103AF8EEE76AB8EEC77A0136C6EE1C
:10445800877A67EE887AFDEEE77ACDED017ABDF9C5
:10446800040009F022FC032EDFD1302009F02EFCD5
:10447800A54BDFF888A2B3F9000009F016FC09F093
:104488001EFC237C9E0733D1DAF80C2041F28833D6
:104498009A421AD9102009F019FC6426DAF8140097
:1044A80090FBF6F000B209F000FC212009F00EFCA8
:1044B800DAF8140090FBF6F306FB130383EAE370C3
:1044C800A0EBE37000B209F0F0FB142009F0FEFB4A
:1044D8008E4BB3F904000A2390FBF3F009F0E5FBD7
:1044E8001C2009F0F3FB002009F0DFFB09F0E7FBD3
:1044F800237C580740F07E81022009F0E7FB7F4BC0
:1045080098696423323090FBF3F000B209F0CDFBD8
:104518007F4B0320B3F9066009F0D8FB7D4B1B786D
:1045280059074FF0050A96FBFAF6B6B20BD549467D
:10453800794816F0FDFC20B92B6813F0100F18BF4E
:10454800002630B205E0754B1B68D889B0FBFAF03D
:1045580000B209F0AAFB2B689A0772D5DFF8ECA124
:104568009AF8001000296CD0A68BDFF8E491360188
:10457800B9F800206423B6B203FB02124B00B2FB69
:10458800F3F346EA0326B6B2C3F303231E43062019
:1045980009F09CFB30B209F088FBA38B9AF8002045
:1045A80001339BB293FBF2F102FB1133216AA3831F
:1045B8008B7B012B05D1392009F088FBB9F9000064
:1045C80021E0B9F800606E237343152693FBF6F6D5
:1045D800CB7BB6B20BB196FBF2F63A2009F076FB2C
:1045E8004FF0640AB6FBFAF90FFA89F009F05DFB9F
:1045F8000AFB19663B2009F069FBB0B2461D0A2088
:1046080096FBF0F000B209F050FB282009F05EFBA1
:10461800434B0A201B6893FBF0F000B209F045FBFE
:10462800042009F053FB3D4B1B68DB8913B10AF0EA
:1046380085FB03E03B4B186880F3100000B209F0DB
:1046480034FB394B1B689B0640F1C980374B1A78FD
:1046580012F0020F99461FD0DFF8F8A0112009F0D8
:1046680035FBBAF80000324B4FF4F366704390FB09
:10467800F3F000B209F019FB192009F027FBBAF88A
:1046880000004643642096FBF0F696FBF0F300FB2F
:10469800136000B209F009FB264B1E8899F8003018
:1046A80013F0020F08BF0026012009F00FFB30B2FB
:1046B80009F0FBFA092009F009FB002009F0F5FAD6
:1046C8001D4B1E781D4B1A88B2F5967F09D9237C9D
:1046D80003F00F03072B04D842F20F76964228BF47
:1046E8001646052009F0F2FA236A5B7BB3BB30B2A9
:1046F80050E000BFB035002068380020F8190020CD
:104708000465002000007A44581300204E630020FE
:104718005A1C00207863002068670020B03400200D
:1047280064130020B434002074580020D8410020BD
:10473800A086010090130020D94100200400002029
:10474800743800203463002064580020B8340020F6
:10475800BA3400204C6300206666E63F203E07EE30
:10476800906A5FED036AF8EEE77A87EEA67AF6EECE
:10477800006AB5EEC07AF1EE10FAFEEE007A58BF84
:10478800F0EE667A37EE277AFDEEC77ACDED017A3C
:10479800BDF9040009F089FA99F800309E0703D49E
:1047A80094F82430012B04D1012384F82430C34821
:1047B8001CE0C34BDFEDC36A1B6A93ED017AD3EDAE
:1047C800027A27EE267A67EEA67ABDEEC77AFDEE64
:1047D800E77A8DED047ACDED057A04A806E0BA4AA9
:1047E80092E8030004AB83E80300184609F07EFA58
:1047F80009F065FA237C282B25D1B14BD8F8006045
:104808004FF03C09002217201A7409F05FFA4EF69F
:104818006020B6FBF0F0B0FBF9F209FB12000002D1
:1048280000B209F042FA182009F050FA4FF47A73EE
:10483800B6FBF3F3B3FBF9F009FB103000B209F053
:1048480034FA09F03CFA94F825209D4B002A00F030
:1048580070819A6A9D49BA1A8A4240F2C48000223D
:1048680083F82E2083F83020994A1288D1B2120A90
:1048780083F84A1083F84B2083F8401083F84120CE
:10488800996DD8F80020511ADA6D107C4FF47A72BD
:10489800424391420DD38F4A12689A658E4A127824
:1048A800013A012A9FBF102283F82E20022283F8A2
:1048B80030208A4B82491A68894B0A2092FBF0F211
:1048C80084F84820121284F84920864A1B6893FB12
:1048D800F0F384F84C301B1284F84D301278824B78
:1048E80090071B7884F87A3003D42D2381F87B3025
:1048F80078E0042B8CBF3323322381F87B306F4B55
:10490800DFF80082D3F800A05868784A784B9AFB01
:10491800F2F14FF0060C08FB01A90CFB09F901EBB9
:10492800810199FBF3F601EB810103FB169976B23D
:1049380006EB810190FBF2F289B208FB02080CFB3E
:1049480008FC84F86A1002EB8202090A84F86B10EA
:1049580002EB82029CFBF3F103FB11C349B24FF057
:10496800640E01EB820293FBFEF384F871301B1294
:1049780092B284F872305F4B84F86F20120A84F880
:1049880070201A8899FBFEF9242353434FF47A7256
:1049980093FBF2F384F86730C3F3072384F8683095
:1049A800554B84F86C901B8884F873301B0A84F884
:1049B8007430524B1B8803F5FA739BB284F8753038
:1049C8001B0A84F876304E4B4FEADA7A4FEA2929E7
:1049D800C00F1B8884F869A084F86D9084F86E0075
:1049E80084F87C30A76294F88C90354EB9F1000FAA
:1049F80010D1D6F8940012F070FAC0B2012809D983
:104A08000228DFF8048101F0D98109F0FBF80123BD
:104A180088F80230D4F89860294B002E00F089807D
:104A280093F88C203AB1D3F8A02040F6B731BA1ADF
:104A38008A4218D87DE0012283F88C20D3F8A4207C
:104A48001278022A06D8D3F894000221043009F01B
:104A5800C3F804E00221D3F8940012F02FFA0023DF
:104A680084F8A83063E093F89C20BAB9C3F898207A
:104A780083F88C20D3F8A4201278022A06D8D3F819
:104A880094000121043009F0A7F804E00121D3F8CB
:104A9800940012F013FA09F0B5F848E0013AD2B2DE
:104AA80083F89C2093F8A81093F8A90072BB4A1CBD
:104AB800013083F8A82083F8A90034E08813002087
:104AC800F81900208096184BC4F701083F0D030021
:104AD800BA34002074380020F662002064130020E5
:104AE800B4340020D8410020D94100208096980095
:104AF80040420F004C6300209213002090130020C6
:104B080094130020806967FF0400002032460130BA
:104B180012F801EBC3F898200EEB010683F8A860A1
:104B280083F8A9007146D3F8940012F0D9F9C4F8B3
:104B3800A070BF4A94F8AA60136802930192BD4B13
:104B4800002E00F0A183D3F8AC20002A00F09C834B
:104B580093F8B020013A012A00F29683DFF8DC923C
:104B680098464FF0010AD4F8AC00B24F12F0B5F9EC
:104B78000146002857D0D8F8AC0012F0A8F9019ADD
:104B880083B27E2B176807D1002388F8B13088F8E4
:104B9800B23089F80330E6E799F80320002AE2D119
:104BA80098F8B11071BB1B2B09D1D8F8AC0012F0E2
:104BB80094F920BBC8F8B47088F8B2A0D3E70D2BDD
:104BC8001DD188F8B1A088F80030A8F8B810CAE755
:104BD80098F8BA7027B180F02000C3B288F8BA20DC
:104BE8004A1CD2B2092A84F8B12063540FD1B8F80C
:104BF800B820C2F1FF02934201D188F8BBA089F81E
:104C080003A0B0E77D2BE3D188F8BAA0ABE7082A68
:104C1800A9D8B8F8B800034403EB132303F0FF0343
:104C2800A8F8B8309FE7019B1A68D7F8B430D31AB0
:104C380041F65832934203D9032387F8B03023E36F
:104C480097F8BB80B8F1000F5DD07B7887F8BB0080
:104C5800302B58D1BB784FEA531CBCF1010F02D05E
:104C680087F8BC005FE003F00F0E03F0100303F0B9
:104C7800FF029BB1FB783879A7F8C80007F1CC028E
:104C8800C7F8C0201A44434087F80C31A7F8CA1067
:104C9800C7F8C42087F8BCC07B1D0AE097F8BC3071
:104CA8008BB397F80D31013303F00F03734508D127
:104CB800FB1CDFF8809194F80C21002709F1080A01
:104CC80002E087F8BC201EE0D4F8C410D4F8C00075
:104CD8008142584901F1080B0DD013F8017B00F10E
:104CE800010C534582EA0702C9F8C0C0077047465D
:104CF800EAD3504900E00FB181F80C215B454D4FD4
:104D080005D187F80DE10027DFF8348182E01A78B1
:104D180097F80C319A424FF0000287F8BC2005D072
:104D2800B7F9C810012008F00FFFECE7D7F8C0303A
:104D3800C7F8C43007F1CC03C7F8C03007F58E7840
:104D480007F5077307F5887107F1C000C7F8143134
:104D5800C7F81081A7F81821A7F81A21FBF710FA4D
:104D68000130434606D1D7F81021511CC7F810115D
:104D780002211170D4F81021C4F810310123C4F8AD
:104D8800142184F81C32BEE7B0F5047F00F03781A7
:104D980000F2CA80B0F5887F00F0A881B0F5007FE6
:104DA80000F04881B0F5807F00F05081BEF1000F1F
:104DB80000F06782019902980968091A012931D817
:104DC800B9F1000F3ED108EB4302108910B94B46E8
:104DD8004FF403600133B0F5E06FDBB2324600F008
:104DE8009881D1D9B0F5026F00F0238240F2EB80B0
:104DF800B0F5046F00F08481B0F5116F00F02A82DD
:104E0800B0F5036FD2D184F81D320B4B1B689A069C
:104E180000F1E98094F8B2E094F81C9294F81D32FD
:104E28000022C3E7002A7BD084F81D3278E000BF57
:104E380074380020F819002074580020040000205D
:104E4800C4F701080AB184F81D32BA4AD4F810111F
:104E580002F58E739942194694F81E3224D1581CD3
:104E680082F81E02B2F91A2103F00F0343F010036F
:104E7800002AD4F81421B8BF43F020038DF810306D
:104E8800531A94F818218DF81130534084F81F32C2
:104E98000DF11203D4F814E194F81F22DFF894C23C
:104EA80000200DF1160117E0591C03F00F038DF8CF
:104EB800103082F81E120DF11103EBE7D4F81061DF
:104EC800C6EB0E07002F13DD701CCCF810013078EC
:104ED80003F8010B424048468B42EFD308B184F8EF
:104EE8001F228B420AD104A9322008F043FE15E0A4
:104EF8000028F6D08F4880F81F22F2E794F81F02A6
:104F080018705A1C00238A4202D202F8013BFAE7C1
:104F180004A9322008F02EFE4FF0000984F81C92F4
:104F2800002384F8B230AFE1B0F5826F00F0208141
:104F3800B0F5C06F00F09A80B0F5806F7FF436AF9F
:104F480084F81D3294F824327A4A0133DBB2032BF9
:104F580088BF012382F8243294F8241242F2107395
:104F68005943754B1B78D80748BF01319A0748BF8A
:104F780002315B07714B1B8848BF0431D80748BF13
:104F88000A319A0748BF1431180648BF2831DA0594
:104F980048BF2831580748BF64311A0748BFC8318D
:104FA800980548BF01F5C8719A0648BF01F57A719E
:104FB800D80648BF01F5FA615A0648BF01F57A617B
:104FC8004FF4806057E1B0F5E46F00F0A780B0F5CA
:104FD800006F53D0B0F5E26F7FF4E8AE84F81D326D
:104FE800574B59689EE0574B1B789B077FF512AFCC
:104FF800554B19884FF4F3634B43642139E184F826
:105008001D322B6898077FF505AF504B197800299A
:105018003FF400AF474B4E4AD3F82032DB7B1BB13D
:10502800138893FBF1F300E013880A2159434FF4E6
:10503800047056E084F81D322B6819057FF5EAAE36
:10504800444B19680A2391FBF3F114E184F81D32EB
:10505800414BDFF8E0901B685A077FF5DBAED9F8C3
:10506800141008F0A1FD89F8B270D3E684F81D3257
:105078002B681B057FF5CEAE384B3FE0364A84F8E7
:105088001D32126891067FF5C5AE2E4A1278920736
:105098007FF5C0AE13F0010F314B11D05B6883EA86
:1050A800E371002BA1EBE37101EB51014FF0190201
:1050B800B1FBF2F1ACBF41F0004141F040410EE0DC
:1050C8001B6883EAE371A1EBE371002B01EB51014B
:1050D8004FF01902B1FBF2F1B8BF41F080414FF433
:1050E800006008F061FD84F8B27093E684F81D3220
:1050F800194B1B685B077FF58DAE1A4B1968BAE030
:1051080084F81D32184BB3F9041001EB81014900F2
:10511800E7E784F81D320A4B196803E084F81D326A
:10512800074B9968114A64234B43118993FBF1F1AA
:10513800D7E700BFF819002078630020A463002097
:1051480034630020D84100204C630020B83400208C
:10515800BA3400206413002074580020B4340020AE
:1051680088130020581300204E6300206458002044
:1051780084F81D328C4BDFF850921B6813F0200A1C
:1051880012D08A4B1A7812F0020F14BF4FF47A71BA
:10519800002112F0010F864A14BF4FF4FA6300236E
:1051A8000B44117819449CE72B681B0605D551461A
:1051B80008F0FAFC89F8B2A02CE6D9F820325B7C1A
:1051C800002B3FF427AE99F82522032A23D8DFE8DD
:1051D80002F002091017774B1868037890F801E07D
:1051E800817813E0734B1868837A90F80BE0017BA1
:1051F8000CE0704B1868037D90F815E0817D05E0A0
:105208006D4B1868437990F806E0C179090401EB01
:105218000E21194400E00021531CDBB2042B01EBE2
:10522800026114BF84F8253284F825724FF4826035
:1052380057E784F81D325C4B1B6899067FF5EAAD89
:105248005A4B1B789A077FF5E5AD5C4B1B886421A8
:10525800594310E084F81D322B689B077FF5DAADBF
:10526800574B197800293FF4D5AD564B1A880A23B5
:10527800534393FBF1F108F097FC534B83F8B2705A
:10528800C8E50AB184F81D3294F826324E4F002B37
:1052980000F00281D7F82832002B00F0FD80019B36
:1052A8001E68D7F82C32F31A632B40F2F580DFF82A
:1052B8002C91412008F02EFC4FF00A08B9F90200A1
:1052C80090FBF8F080B208F01CFCB9F9000090FBE4
:1052D800F8F080B208F015FCB9F9040090FBF8F07A
:1052E80080B208F00EFC08F0DDFB97F8307217F07A
:1052F80001073DD02C4B1A6812F0200F9A4600F097
:10530800A0802A4BDFF8A8901B7813F0020F08D072
:1053180099F80030052B34BF4FF002084FF003080E
:1053280001E04FF00108294F472008F0F3FB3868E7
:1053380008F0D6FB786808F0D3FB254B642718885B
:10534800B0FBF7F0C0B208F0B9FBDAF8003013F0A0
:10535800140F0BBF194B1F4B1888186808BF7843E8
:1053680008F0BEFB99F8000048EA8000C0B264E08B
:10537800194B1B88D90534D4DA060DD498060DD4F8
:1053880059060DD41A070DD4D80729D413F0020FE3
:1053980014BF0327012724E00D2722E0092720E076
:1053A80004271EE008271CE074580020D84100207C
:1053B800D9410020B4350020641C0020901300203F
:1053C800B8340020BA340020F819002088130020CF
:1053D8004C630020881C0020A46300204E6300203A
:1053E8000227BC4B93F80080BB4BDB78C8F38008DE
:1053F8001BB148F002085FFA88F8532008F08AFBCE
:10540800B64B188800EB800000EB8000800080B26B
:1054180008F077FB002008F074FBB14B1888FE23D6
:10542800584340F2FF3390FBF3F0C0B208F046FB5C
:10543800002008F043FB48EA870008F03FFB08F02B
:1054480031FB94F83072D7B9DFF8BC824F2008F0EE
:1054580061FBD8F8000008F043FBD8F8040008F016
:105468003FFB384608F03CFB012008F027FB9D4B2A
:10547800187800F0010008F021FB08F013FB94F8FD
:105488003032C4F82C620133DBB20A21B3FBF1F2EB
:1054980001FB123384F83032934E96F80090B9F13C
:1054A800020FB24640F036810DF04EFE8F4B1F685A
:1054B80040F6B833C71B9F4207D900233370B4F8AE
:1054C80032320133A4F832323AE1DFF8408298F8F8
:1054D80004303A2B40F0FA8098F8021040460CF05D
:1054E80067F9002840F0F2807C4B814E1B88F361FD
:1054F800804BD4F834B21B68F3626369F3637E4B64
:10550800F7661B68F364B4F83232F36558460DF059
:1055180042FBDFF8F0A10746002840F0FB8049462F
:10552800584611F0CBFC042386F8743098F8033001
:1055380002939AF83832642B46D19AF83932072BFD
:1055480008BF8AF8397294F8398206EB0816716830
:105558000391084616F084FCD6F808B0674E5FFA47
:1055680080F9584616F07CFC5FFA80FA09EB0A03CA
:105578000833F37128F00F03B37208F00F03737345
:105588000AEBC903B3734A46039906F10F0017F0F3
:10559800F9FB06EB0900524659460F3017F0F2FBAB
:1055A80016F8079F494630460CF0E6F806F8090059
:1055B800029812F059F908F10108002384F83832EA
:1055C80084F839824D4E68E096F875804B4BDFF8C9
:1055D80030E118F00F0F04BF08F101085FFA88F8EE
:1055E800B8F1070F4FF0000203F10D0128BF4FF08B
:1055F80001089A729B468A464FEA081306EB030C89
:10560800481C9CF81020DCF80CC043EA02097244DC
:1056180081F8009092F82A10012900F1010207D9B7
:10562800013902F801CC10464FEA1C2CC9B2F3E745
:10563800334408F101085B7C2CF0600C5FFA88F8B1
:105648004CEA030CB8F1080F114680F800C00CD0E2
:10565800274B2B4803EB08131B7C034493F82A00C1
:10566800CAEB02030344132BC6DDCAEB020A0AF194
:10567800060A5FFA8AFADFF898904AF040038BF836
:105688000730514648460CF077F809F80A000298A6
:1056980086F8758012F0E8F894E7B37807F1010806
:1056A800FFB2BB4206D9F15DD4F8340211F018FC00
:1056B8004746F2E70E4B032283F8742094F83832F9
:1056C800013384F83832084B1A7023E000238AF833
:1056D800003035E07863002078380020BA340020A4
:1056E80060130020D8410020133800204C380020D7
:1056F8000400002064130020B43400203C51002032
:10570800C4F70108F8190020D813002040380020F9
:10571800435100208C4E96F87430032B10D1D4F8E6
:10572800340211F0CEFB58B1884B0121D3F8340272
:1057380011F0C4FB022386F87430854B00221A70DE
:1057480094F83A32002B00F00483824B1B68002B3C
:1057580000F0FF820DF0F8FC7C4BD3F83C3244F6A5
:105768001F62C31A9342064640F2F382022008F0F1
:105778006DF9002863D0784B2D681B6849F60742FD
:1057880013F0080F48F6034718BF1746590744BFD8
:1057980047F4005747F008079A0644BF47F4804784
:1057A80047F0200715F00205C7F309080ED06B4B28
:1057B8001D886B4B05EB8505B3F9009009F0E2FAFB
:1057C80005EB8505AD00ADB240B202E04FF0FF3900
:1057D80064200023ADF81C30ADF82230ADF8243039
:1057E800ADF82630ADF82830ADF82A30ADF82C30B9
:1057F8005C4B04970597CDF81880ADF81E50ADF8AE
:1058080020908DF82E0004AA0AAF154603CDBD429C
:10581800186059602A4603F10803F6D12868186011
:10582800A988AA799A7199804F4B01227C211F205F
:10583800DA7111F0BFFF11F0A5FF11F08FFF0320FF
:1058480008F004F9002862D0019BD3F80090474B78
:105858001B78002B00F0F382454A012B158840F293
:10586800EF82022B578800F0EC82032BB2F804E099
:1058780000F0E982042BD08800F0E682052BB2F80C
:1058880008C000F0E382062BB2F80A8000F0E0823C
:10589800072B918914BFD2890022364BADF82220FC
:1058A8001B88ADF816700022C3EB032340F2FF3AC1
:1058B80093FBFAF38DF825302A4B8DF82420CDF888
:1058C8001090ADF81450ADF818E0ADF81A00ADF826
:1058D8001CC0ADF81E80ADF8201004AA08AF15460C
:1058E80003CDBD42186059602A4603F10803F6D17A
:1058F80028681860AA889A801B4B2322F421162056
:10590800DA7111F057FF11F03DFF11F027FF062063
:1059180008F09CF8002800F0E5800F4B1A6812F098
:10592800200F994600F0DE80134BDFF850A01B785B
:1059380013F0020F24D09AF80030052B34BF4FF033
:1059480002084FF003081DE004000020F8190020A9
:1059580013380020F84F002074580020BA34002073
:105968006413002004500020FC4F00205C38002005
:10597800144D002060130020D8410020D941002098
:105988004FF00108A04FA14D0DF0DEFB3B882968C0
:105998009AF800A004904FF47A7E0EFB03F29C4B19
:1059A8000892B3F800C09B4B06911B886968ADF854
:1059B80028C04FF6FF7203EB8303ADF82420ADF83F
:1059C8002620954A8DF82DA05B0000200DF1100EC1
:1059D800BB46AA4605900791ADF82A308DF82C8071
:1059E8000DF1280C77461546734603CB63451060C6
:1059F80051609E4602F10802F6D1186810609B8833
:105A0800DFF82882938018211E2088F8071011F0EB
:105A1800D1FE11F0B7FE11F0A1FE0DF095FBBBF819
:105A28000030DAF80020DAF8041005924FF47A7E94
:105A38000EFB03FED9F80030CDF81CE013F0140F6C
:105A480018BF764B049018BF1B6806911CBF4FF017
:105A58000A0C0CFB03FC724B08BFF4460022B3F996
:105A68000430CDF820C04FF00A0993FBF9F3ADF8E4
:105A78002A30694BADF82420ADF82620ADF828204F
:105A8800BE460DF1280C724603CA6245186059607B
:105A9800964603F10803F6D110681860682121239F
:105AA8001C2088F8073011F085FE11F06BFE11F00C
:105AB80055FE5C4B5A681B680493002305920693B5
:105AC8003B4603CBC8F808001868696031232721D2
